:1000000000800020BD010000691F0000351F0000B6
:10001000351F0000351F0000351F0000351F000090
:10002000351F0000351F0000351F0000691F00004C
:10003000691F0000351F0000691F0000251F000018
:10004000691F0000691F0000691F0000691F000090
:10005000691F0000691F0000691F0000691F000080
:10006000691F0000691F0000691F0000691F000070
:10007000691F0000691F0000691F0000691F000060
:10008000691F0000691F0000691F0000691F000050
:10009000691F0000691F0000691F0000691F000040
:1000A0002D560000691F0000691F0000691F000035
:1000B000691F0000691F0000691F0000691F000020
:1000C000691F0000691F0000691F0000691F000010
:1000D000691F0000691F0000691F0000691F000000
:1000E000691F0000691F0000691F0000691F0000F0
:1000F000691F00002D2B0000691F0000CD2F00009C
:10010000691F000099330000691F0000691F00008B
:10011000691F0000691F0000691F0000691F0000BF
:10012000691F0000691F0000691F0000691F0000AF
:10013000691F0000691F0000691F0000691F00009F
:10014000691F0000691F0000691F0000691F00008F
:100150008142000099420000B1420000C942000003
:10016000691F000049360000691F0000691F000078
:10017000691F0000691F0000691F0000691F00005F
:10018000691F0000691F0000691F0000691F00004F
:10019000691F0000691F0000691F0000691F00003F
:1001A000691F0000691F0000691F0000691F00002F
:1001B000691F0000691F0000613F0000574B4CF2AF
:1001C000205210B51A804DF628121A8000BF00BFC9
:1001D00001F0CEFE524B4FF010621A60514A9A6005
:1001E000514ADA60A3F53043203B1A6812F480725A
:1001F00004D14E490A604FF4A8521A604C4B1A7849
:10020000110703D51A7842F008021A70494B2A22C6
:100210001A700023484A49499818884204D248492C
:10022000595899500433F5E7464A474B9A424FF0E4
:10023000000302D242F8043BF7E74449444A5958C4
:1002400099500433B3F5DE7FF7D1424B802103F898
:10025000011B41498B42F9D1404B1A60404B0A22A5
:100260001A70A3F6FF7324221A70A02203F8012C3F
:100270003C4B1A789207FBD51A78D406FCD41A782E
:1002800002F00C02082AFAD1374B03221A704022DE
:100290005A70344B1A789006FBD51A785106FCD563
:1002A000324B334A1A6002225A60324B20221A70B3
:1002B0002C4B1B7803F00C030C2BF9D12E4B2F4A3F
:1002C0001A602F4B2F4A1A6000225A60072243F807
:1002D000042C2D4AC3F80C2D62B602F0FDF9134B25
:1002E0001B68DA0705D5294802F012F8284B294A7D
:1002F0001A60294B1B785B0609D5254C254A2368D3
:10030000934204D1214802F003F80023236006F051
:10031000FDF901F033FE01F0F9FAFEE70E20054089
:1003200030800440823F04000100002B14D00340C1
:1003300002D0074000E007406087FF1F6490FF1F66
:100340009C7800006490FF1F3896FF1F000000009B
:100350000082FF1F00E400E05FE400E008ED00E041
:1003600000500640064006400440064044800440D9
:10037000000003010040064004800440C010050056
:1003800014E000E0FF7601000000202000DD68504E
:100390001CE00340A5C3945A00F00740FFFFFFFF95
:1003A000FFFFFFFFFFFFFFFFFFFFFFFFFFFFFFFF5D
:1003B000FFFFFFFFFFFFFFFFFFFFFFFFFFFFFFFF4D
:1003C000FFFFFFFFFFFFFFFFFFFFFFFFFFFFFFFF3D
:1003D000FFFFFFFFFFFFFFFFFFFFFFFFFFFFFFFF2D
:1003E000FFFFFFFFFFFFFFFFFFFFFFFFFFFFFFFF1D
:1003F000FFFFFFFFFFFFFFFFFFFFFFFFFFFFFFFF0D
:10040000FFFFFFFFFFFFFFFFFFFFFFFFFEFFFFFFFD
:1004100010B5054C237833B9044B13B10448AFF33E
:1004200000800123237010BD6490FF1F00000000B6
:100430009C78000008B5064B1BB106480649AFF38F
:1004400000800648036813B1054B03B1984708BD07
:10045000000000009C7800006890FF1F6490FF1F60
:10046000000000004360009B8360019BC360002389
:1004700002600B604B6070472DE9FF4704AC04E954
:100480000F000C9C0D9D6768009E2968384605F09A
:1004900019FE314605F01EFF4FF07C5105F01AFFA2
:1004A000216805F00FFE2060D5F800800199814693
:1004B000404605F00FFF02998246484605F00AFFC4
:1004C0000146504605F0FEFD39468146404605F09E
:1004D000F7FD039905F0FEFE314605F0AFFF01463A
:1004E000484605F0EFFDA0602B68636004F108004A
:1004F00004B0BDE8F087FFFF014B0360704700BF09
:10050000A87200007047FFFF70B50269C368044617
:1005100012F0010F80684FEA62020E4618BF815840
:10052000104418BFCB589847A069A568636910F0BC
:10053000010F4FEA600031461CBF2A58D358024AC7
:1005400028441268984770BDE091FF1F10B5026AF9
:10055000C369806812F0010F4FEA620218BF845825
:10056000104418BFE358984710BDFFFF014B0360CC
:10057000704700BFA872000010B5034B036004462B
:1005800003F00EFF204610BDA872000010B5034B0B
:100590000360044603F004FF204610BDA87200006B
:1005A000F8B5054624260C46174608463246002173
:1005B00006F01AFC2B6C63600123A360696B28684A
:1005C0002660276105F086FE0E4905F037FF0E49CB
:1005D00005F080FE6061696B686805F07BFE094983
:1005E00005F02CFF084905F075FEA061696BA8684D
:1005F00005F070FE034905F021FF034905F06AFE8E
:10060000E061F8BD00007A440AE81C41F8B50546EF
:1006100024260C46174608463246002106F0E4FB25
:100620006B6C63600223A360A96BE8682660276196
:1006300005F050FE0A4905F001FF6061A96B2869C9
:1006400005F048FE064905F0F9FEA061A96B68694E
:1006500005F040FE024905F0F1FEE061F8BD00BF83
:1006600000007A44F8B5054624260C46174608468D
:100670003246002106F0B8FB2B6C63600423E96B63
:10068000A869A3602660276105F024FE6061E96B1C
:10069000E86905F01FFEA061286AE96B05F01AFE03
:1006A000E061F8BDF8B5054624260C461746084615
:1006B0003246002106F098FBEB6C63600D23A360CB
:1006C000B5F924002660276105F0B0FD4FF07851A0
:1006D00005F000FE024905F0F5FC6061F8BD00BFC1
:1006E0000000A84138B528220C46054608460021DE
:1006F00006F07AFB08490B22204606F005FC002391
:10070000E372296C636201220023E260216162616D
:10071000A361E361236238BDE072000038B528228E
:100720000C4605460846002106F05EFB0B222046DB
:10073000084906F0E9FB0023E3720122E2606A6CDB
:1007400022616362022200236261A361E36123628A
:1007500038BD00BFEA72000038B528220C460546B5
:100760000846002106F040FB0B222046084906F00F
:10077000CBFB0023E3720122E260AA6C2261636278
:10078000042200236261A361E361236238BD00BFDC
:10079000F472000038B528220C46054608460021B0
:1007A00006F022FB0B222046084906F0ADFB002391
:1007B000E3720122E260EA6C226163620D2200238F
:1007C0006261A361E361236238BD00BFFE72000075
:1007D000002AF0B50CBF4FF064524FF06052002475
:1007E0000F4E104FA65B104D97FBF6F6B14255F831
:1007F000145004D3190706D542F0806203E0023496
:100800002E2CEDD1F6E75B0707D525F4704305F4F0
:10081000704542F0007243EA15152A430260F0BDAC
:10082000A0770000006CDC02D077000010B5044611
:10083000FFF7CEFF204610BD10B5184B1A7802B353
:1008400072B61B78D90707D5154A16491468096886
:100850002140154C216011609A0707D5134A1149B0
:10086000146849682140104C616011605B0707D52E
:100870000F4B0C4A196892680A400B498A601A604B
:1008800062B60C4BDA68824207D00B4A1A60D86015
:100890000A4A40F0804018611A6010BD8495FF1F1D
:1008A00080E100E06C95FF1F7895FF1F84E100E078
:1008B00088E100E000C0024001401F0000001F80EE
:1008C0000A4B1B788BB1D90703D5094A1168094A2D
:1008D00011609A0703D5064A5168074A11605B0701
:1008E00003D5034B9A68054B1A6070478495FF1F28
:1008F0007895FF1F00E100E004E100E008E100E07E
:1009000010B50A46097901719168816002F10C0104
:10091000034600F10C0403C984E8030002F114014A
:1009200003C903F114041C3284E8030092E80300B5
:1009300003F11C0484E80300184610BD70B580F86C
:100940002C20FF2280F8302080F82F2080F82E20E5
:100950005A1C02649A1C8AB04264DA1C0433C364D1
:10096000274B284E04930025274B826404460665D6
:100970004667C0F89860C0F8BC6080F8265080F8E0
:100980002D100390069301A9204B08935030019637
:10099000059507950995FFF7B3FF1D4B04931D4B74
:1009A000069301A91C4B089304F17400019603946B
:1009B000059507950995FFF7A3FF184B0493184B6E
:1009C000069301A9174B089304F19800019603942C
:1009D000059507950995FFF793FF134B0493134B68
:1009E000069304F1BC00124B019601A903940595EE
:1009F000079508930995FFF783FF20460AB070BD5D
:100A0000F90B0000C8720000A1050000E506000017
:100A10004B0C00000D0600001D0700009D0C00009F
:100A20006506000059070000EF0C0000A506000055
:100A3000950700002DE9F04190F93030013304466C
:100A40000F460CD1184B4FF00042DA625963DA6A54
:100A5000002AFCDA144B986BC0B2BDE8F08107267F
:100A6000002594F8300000214FF0010801F0D4FC7B
:100A700008FA06F194F82E00394001F0CDFC94F804
:100A8000300041466D0001F0C7FC94F82F00EDB234
:100A900001F0E2FC08B145EA080516F1FF36E0D2A4
:100AA0002846BDE8F08100BF00C002402DE9F341B7
:100AB000044690461F4619B190F82C506B2102E075
:100AC00090F82D501D2194F8266086B1A06A04F09C
:100AD0002FFEA06A036841461B689847A06A036816
:100AE00039461B689847A06A04F0EBFE1BE0012220
:100AF00033460E4901A8FFF799FE0198FFF79CFEC7
:100B00002846314601F088FC48F040012046FFF7B6
:100B100091FF39462046FFF78DFF2846012101F05D
:100B20007BFCFFF7CDFE02B0BDE8F081400D030075
:100B30002DE9F347DDF82890044692461D4621B181
:100B400090F82C704FF06B0803E090F82D704FF088
:100B50001D0894F826602EB3A06A414604F0E8FD13
:100B6000A06A036851461B689847A06A04F0A9FE72
:100B7000A06A41462A4604F0A1FEA06A03689B6869
:100B80009847A842F9DB0026F3B2AB42A06A06D22E
:100B90000368DB68984709F806000136F4E704F0BB
:100BA00090FE22E013490122334601A8FFF73EFEE2
:100BB0000198FFF741FE3846314601F02DFC2046F2
:100BC0004AF0C001FFF736FFF3B2AB4207D220462E
:100BD0000021FFF72FFF09F806000136F4E7384639
:100BE000012101F019FCFFF76BFE284602B0BDE8B9
:100BF000F08700BF400D03007FB502AB0021A822A3
:100C0000009306230446FFF793FF9DF80A309DF8F2
:100C10000B609DF80D509DF8090043EA06269DF8EB
:100C20000C3043EA05259DF8083043EA002000B265
:100C300005F0FCFA206030B205F0F8FA606028B2E6
:100C400005F0F4FAA06004B070BD7FB502AB0021DE
:100C50008822009306230446FFF76AFF9DF80A30B6
:100C60009DF80B609DF80D509DF8090043EA06269B
:100C70009DF80C3043EA05259DF8083043EA002032
:100C800000B205F0D3FAE06030B205F0CFFA20618F
:100C900028B205F0CBFA606104B070BD7FB502AB3D
:100CA0000121A822009306230446FFF741FF9DF887
:100CB0000A309DF80B609DF80D509DF8090043EA3D
:100CC00006269DF80C3043EA05259DF8083043EAD6
:100CD000002000B205F0AAFAA06130B205F0A6FA31
:100CE000E06128B205F0A2FA206204B070BD1FB521
:100CF00003AB00930021852202230446FFF718FF6F
:100D00009DF80D209DF80C3043EA0223A38404B023
:100D100010BD10B50446FFF76FFF2046FFF795FFA3
:100D20002046FFF7BBFF2046BDE81040FFF7DFBFBE
:100D30001FB50DF10F0300930123FFF7F9FE9DF896
:100D40000F0005B05DF804FB38B521220D460021E7
:100D50000446FFF7EDFF00F0C703002120462122E3
:100D60002B43FFF7A3FE102D0DD003D83DB1082D66
:100D700007D038BD182D08D0202D08D038BD054B20
:100D800006E0054B04E0054B02E0054B00E0054B97
:100D9000636338BD23DB793D23DBF93D5A643B3E79
:100DA00023DB793E5A643B3F38B525220D460021AE
:100DB0000446FFF7BDFF00F09F03002120462522D7
:100DC0002B43FFF773FE202D09D001D82DB138BD7C
:100DD000402D06D0602D06D038BD044B04E0044BF6
:100DE00002E0044B00E0044BA36338BD0AD7A33DE7
:100DF0000AD7233E0AD7A33E8FC2F53E38B5232239
:100E00000D4601210446FFF793FF00F0CF030121B7
:100E1000204623222B43FFF749FE102D04D0202D1E
:100E200004D02DB9034B02E0034B00E0034BE36316
:100E300038BD00BF295C0F3C295C8F3C295C8F3D8D
:100E400090F8263010B504461BB1806A04F0CCFB44
:100E50003CE090F8300043B2013316D194F82D00F5
:100E6000012101F007FB94F82C00012101F002FBA5
:100E700094F82D00012101F0CFFA94F82C00012103
:100E800001F0CAFA04F0B0FA20E0012101F0F2FA10
:100E900094F82E00012101F0EDFA94F82D000121C3
:100EA00001F0E8FA94F82C00012101F0E3FA94F83B
:100EB0002D00012101F0B0FA94F82C00012101F07D
:100EC000ABFA94F83000012101F0A6FA2046002187
:100ED0000F22FFF72DFF492801D0002010BD20462A
:100EE00001210F22FFF724FFD428F6D1204600214C
:100EF00020226723FFF7DAFD204600212422F02379
:100F0000FFF7D4FD002120460B462622FFF7CEFD39
:100F100020460F2301212022FFF7C8FD2046002193
:100F20002422FFF705FF60F07F032422DBB2204676
:100F30000021FFF7BBFD20460021FFF705FF2046FB
:100F40000021FFF731FF20460021FFF757FF012066
:100F500010BD0B88584080EA0010C0B2C20082EA7F
:100F6000002282EA132383EA101008807047B0F849
:100F70009C007047B0F89E0070470430704710B571
:100F80001346CA780C4618460231063205F092FE26
:100F9000E2780346063281182088985423881B1271
:100FA0004B70E078083010BD08B5C06904F031F826
:100FB00008BDFFFFF8B5634C00232370E3780746B4
:100FC0000D46092B00F2A180DFE803F00505132E82
:100FD00027353C48597EFE2940F097800223E37074
:100FE000594B0022DA704FF0FF3299701A705A7024
:100FF0008BE0802907D9637801336370A3780133CC
:10100000A370012307E0504900232371CD702846C7
:10101000FFF79FFF0423E37077E04B4928460D71EB
:10102000FFF797FF0323F6E7474928464D71FFF77F
:1010300090FF0523EFE7444928468D71FFF789FFAC
:101040000623E8E7404E0846F1713146FFF781FF7D
:10105000F3780BB90823DEE70723DCE723793A4E60
:101060005A1C33442271197208463146FFF771FF4A
:101070002279F3789A4248D10822324B30E0324E3E
:10108000324AF3793146D05CFFF763FF3388DBB235
:101090009D4213D0A3782B4A0133A370FE2D4FF04D
:1010A0000003237002D00123D3702EE00221F370DD
:1010B0004FF0FF33D1703370737026E00923E37073
:1010C00023791E44357220E01F490B88B5EB132F9E
:1010D00011D0A2781B4B0132FE2DA27002D001224A
:1010E000DA7012E00222DA700023CB704FF0FF3387
:1010F0000B704B7009E001232370E37023790B44DC
:1011000004305D72902205F0D5FD20780D4A01284B
:1011100007D10D4B1B795371138903B953810133E7
:1011200023816379013387F899302389A7F89C30AC
:10113000A378A7F89E300023C01AA37018BF01201F
:10114000F8BD00BF8090FF1F8C90FF1F4073000010
:101150002DE9F3411F46FE2383701D4BC77041717B
:1011600082719A79027101329A714FF6FF730446C7
:10117000C61CADF8063000F10805AE4206D016F8E0
:10118000010B0DF10601FFF7E4FEF6E794F803808A
:10119000BDF806302380A8442E46464505D016F8F3
:1011A000010B2146FFF7D5FEF7E79DF82000214609
:1011B000FFF7CFFEE3782288EA54E3781D442388C2
:1011C00007F108001B126B7002B0BDE8F08100BF90
:1011D0008090FF1F002370B543600372C3600361FA
:1011E0004361836180F82030104B114A02601A88F5
:1011F0009B78A0F821200446416280F82330A0208B
:1012000003F0CAF80B4B036005460C2003F0C4F84A
:1012100009492A46064603F0F9FEE66101F02AFA7A
:10122000206101F027FAA061204670BD28730000FC
:101230003873000010730000BC94FF1F2DE9F04FBD
:101240000129B3B004460F4600F01F8106D30A29D6
:1012500036D0142940F04C8100268BE0406A00F023
:1012600086FC8046606A00F082FC0746606A00F0F7
:1012700080FCA14B00218146606A1D6800F07BFC68
:1012800003F045FA03F0B2FD03F098FE00260223B6
:10129000ADF828508DF82B300796CDF820900996A0
:1012A0008DF82A0007AB0FCB10AD85E80F0089231E
:1012B00000938DF83F600EA841463A4610230FE197
:1012C0000027606A00F053FCFDB229468146606A3F
:1012D00000F051FC03F01BFA294690F80480606A84
:1012E00000F049FC03F01FFA29468346606A00F0CB
:1012F00042FC03F013FA29460346606A029300F0A9
:101300003AFC03F006FA29460646606A00F033FC10
:1013100003F0FDF903F06CFD29468246606A00F097
:101320002AFC03F005FA029B089300230A96CDF8E5
:101330001CB009930B90ADF83030ADF832A007AE79
:101340000FCE10AD0FC596E803000A238DF83F308D
:10135000872385E8030042460093494618230EA8D8
:10136000FFF7F6FE0137E0690EA903F06CFE042FCB
:10137000A7D1BDE0F5B22946606A00F000FC006824
:1013800005F06EF929461FFA80FC606ACDF80CC0A2
:1013900000F0F5FB406805F063F9294682B2606A07
:1013A000049200F0ECFB806805F05AF9294683B2FC
:1013B000606A029300F0E3FB806905F051F9294669
:1013C0001FFA80FB606A00F0DAFBC06905F048F99B
:1013D00029461FFA80FA606A00F0D1FB006A05F026
:1013E0003FF929461FFA80F9606A00F0C8FBC0681F
:1013F00005F036F929461FFA80F8606A00F0BFFB55
:10140000006905F02DF9294687B2606A00F0B7FB44
:10141000406905F025F981B2606A059100F0A7FBEB
:10142000DDF80CC0049A029B0599ADF81CC0ADF81C
:101430002A70ADF81E20ADF82030ADF822B0ADF81E
:1014400024A0ADF82690ADF82880ADF82C100DF151
:101450001C0C8646BCE80F0010AF0FC7DCF800304C
:101460003B8014238DF83F302C23714600932A468D
:1014700012230EA8FFF76CFE0136E0690EA903F0F7
:10148000E2FD022E7FF476AF32E0406A00F06FFB9F
:10149000194B8DF83F701E68184B0796D3F800C0A3
:1014A000174BCDF820C086461868164B099019686E
:1014B000154B0A911D68154B0B951A68144B0C922D
:1014C0001B680D9307AE0FCE10AD0FC596E8070051
:1014D000F72385E8070000930EA8714600221C231D
:1014E000FFF736FEE0690EA903F0ADFD012000E034
:1014F000002033B0BDE8F08FE091FF1F3091FF1F57
:101500001C91FF1F2091FF1F2491FF1F2891FF1F97
:101510002C91FF1F70B5CB790B2B86B004460A4681
:101520003AD00C2B69D10D4601AB55F8080F69680C
:1015300003C3A86818609379032B11D0042B1DD026
:10154000022B5AD10025E9B2606A00F014FB013584
:101550000199029A039B03F08DF8042DF3D14CE01E
:101560000025E9B2606A00F006FB01350199029A94
:10157000039B03F08DF8042DF3D13EE00025E9B282
:10158000606A00F0F8FA01350199029A039B03F0B2
:101590008DF8042DF3D130E001F1080301AD01F124
:1015A0001802186859682E4603C608339342354618
:1015B000F7D11B7833700021606A00F0DCFA9DF8E7
:1015C000145001992A4603F082F80121606A00F064
:1015D000D2FA2A46029903F07AF80221606A00F0F2
:1015E000CAFA2A46039903F072F80321606A00F0F0
:1015F000C2FA04992A4603F06AF8002006B070BDCA
:1016000010B50446E06903F007FD38B1E06903F066
:101610002EFD01462046FFF77DFFF3E710BD38B5EC
:10162000044601F027F823699842054613D903F6CA
:10163000B833236194F820302344204693F82110D6
:10164000FFF7FCFD94F820300133DBB2022B88BF9A
:10165000002384F82030E3689D4206D903F59C53AB
:101660000833E3602046FFF7CBFFA3699D4208D90A
:1016700003F5742303F51073A36120460021FFF7DF
:10168000DDFD002038BD00F003BCFFFF73B504464C
:10169000022103F011FD604B2360042002F07EFE66
:1016A0002061102002F078FE0D211E22054603F075
:1016B000B7FB236924201D6002F070FEA0611C208E
:1016C00002F06AFE32222821054602F00DFFA369CE
:1016D00052491D60A369186803F076FC2C2002F0C3
:1016E0005BFE112110220A23054603F019FBA369B2
:1016F0002C205D6002F050FE082107220B230546D6
:1017000003F00EFBA3692C209D6002F045FE13211F
:1017100012220C23054603F003FBA3692C20DD6095
:1017200002F03AFE012100220D23054603F0F8FAEB
:10173000A3691C201D6102F02FFE252114220546FD
:1017400002F0D2FEA3691C205D6102F025FE232178
:101750001522054602F0C8FEA3691C209D6102F017
:101760001BFE24211622054602F0BEFEA3691C20A2
:10177000DD6102F011FE22211722054602F0B4FEBF
:10178000A36910201D6202F009FEA060204603F04C
:10179000D4FC0646102002F0FFFD00231521142280
:1017A00000933346054603F0D5FBA36820461D6031
:1017B00003F0C3FC0646102002F0EEFD01230521D4
:1017C000062200933346054603F0C4FBA368204677
:1017D0005D6003F0B2FC0646102002F0DDFD02233E
:1017E0001721162200933346054603F0B3FBA36886
:1017F00020469D6003F0A1FC0646102002F0CCFDBF
:101800000321334600910422054603F0A3FBA3689D
:101810002046DD6002B070BD48740000508D5B4012
:101820007047FFFF08B5034B186800F081F90020EE
:1018300008BD00BF3891FF1F08B5034B186800F0C2
:101840008AF9002008BD00BF3891FF1F13B5234B54
:10185000234C1968206803F05FFD206803F06DFCDD
:1018600045F6C05103F0ACFB206803F066FC002491
:1018700045F6C05103F0A6FB4FF47A71194A009463
:101880002346042003F028FD174B184A1870184906
:1018900000942346022003F01FFD164B1870164BD0
:1018A0001A7842F004021A70144B1868FFF7C8FA4D
:1018B00020B1134B1868FFF7C3FA20B902B0BDE896
:1018C000104003F053BC23460094032041F28831BA
:1018D0000C4A03F001FD0C4B1870EFE74091FF1F1D
:1018E0004491FF1F251800003C91FF1F21180000A4
:1018F00040420F005091FF1F5494FF1F4891FF1F5B
:101900004C91FF1F391800003491FF1F08B5FFF7F5
:101910009DFF03F041FCFCE72DE9F04F95B000F08E
:10192000B7FA202002F038FD434C0546FFF7AEFE23
:10193000E020256002F030FD404D02210922002305
:101940000646FEF7FBFFE0202E6002F025FD002397
:101950000F210A220646FEF7F1FF394A2068166079
:1019600000210D9203F0B8FB01218246206803F0AC
:10197000B3FB02218146206803F0AEFB03218046C1
:10198000206803F0A9FB1421034620680E9303F09E
:10199000C1FB15218346206803F0BCFB1621109083
:1019A000206803F0B7FB17211190206803F0B2FB09
:1019B0000A211290206803F0ADFB0B2113902068E0
:1019C00003F0A8FB0C210746206803F0A3FB0D21C0
:1019D0000646206803F09EFB01464FF404700F9109
:1019E00002F0DAFC0E9B0F9908918DE80808109B15
:1019F0000293119B0393129B0493139B05930697E9
:101A000007962B680D9A099313680A930023514691
:101A10004A460B930B4D4346044600F017F8282026
:101A20002C6002F0B9FC29680446FFF7D3FB064B93
:101A30001C6015B0BDE8F08F4491FF1F4891FF1F57
:101A40004C91FF1F3891FF1F4091FF1F2DE9F74F69
:101A50009A46179B4360044628208846129F139E8F
:101A6000934602F099FC11992F4B0022814604F114
:101A7000080502F0BBFE119B2C4A019341460D9BC9
:101A8000CDF80090284602F03DFD282002F084FCAD
:101A9000394680460022244B02F0A8FE5946234ACC
:101AA0000E9B0197CDF8008004F1880002F02AFD1A
:101AB000282002F071FC3146074600221A4B02F042
:101AC00095FE5146194A0F9B0196009704F58470C4
:101AD00002F018FD282002F05FFC1499124B00223E
:101AE000064602F083FE149B009601930C990F4A60
:101AF000109B04F5C47002F005FD159BC4F8083274
:101B0000169BC4F80C3203F065FA00262070A81961
:101B10000221803602F0D8FDB6F5007FF7D12046CD
:101B200003B0BDE8F08F00BF0AD7A33C6F12833A21
:101B300010B50446083002F01AFD04F1880002F0E6
:101B400016FD04F5847002F012FD04F5C470BDE8C2
:101B5000104002F00CBD10B50446D0F80802FFF7A3
:101B6000D8F8D4F80C02BDE81040FFF7D2B80078DE
:101B700070474068704700EBC110083070478231F1
:101B800050F82100704700F083B9FFFFF0B5304BEB
:101B90001B681B06FBD42F4B1B6813F08002F6D189
:101BA00072B62D4B1978002950D02C4908684F681F
:101BB0008E68CD680C693844143130440968284473
:101BC00020440844C0F34E00254940F4004008601A
:101BD000C86A0F6B4E6B8D6BCC6B38444031304410
:101BE0000968284420440844C0F34E001D4940F4CD
:101BF0000040086001F10811143151F8140C51F83B
:101C0000107C51F80C6C51F8085C51F8044C0968D0
:101C100038443044284420440844C0F34E0012495C
:101C200040F400400860C86A0F6B4E6B8D6BCC6B44
:101C30003844403130440968284420440844C0F303
:101C40004E000A4940F4004008601A7062B6F0BDC8
:101C500024B0034024B00B405291FF1F38B0034022
:101C60002CB0034030B003402CB00B4030B00B40E0
:101C700010B5204B2048214960221A70E1225A7089
:101C80001F4B204A1C78204B082C01D1012402E074
:101C90000A2C03D139240460132005E00C2C0CBF5E
:101CA00035243D2404601220086014601860174B2E
:101CB00017491B78174A03B101230B601360164BB9
:101CC000164A1978164B012901D880210BE0042906
:101CD00001D8842107E0082901D8852103E01029D3
:101CE00094BF86218721116019600E4B01221A7062
:101CF00010BD00BF0040074008B003400CB00340D7
:101D00006487FF1F08B00B400CB00B405591FF1FBC
:101D100020B0034020B00B406587FF1F24B0034074
:101D200024B00B405291FF1F0C2804D9102828BF63
:101D30001020102307E00A2804D8092834BF0823FC
:101D40000A2300E00C23094AD9B2081A1070084A85
:101D50001078834208D0074B11701B7813B1064BE3
:101D600000221A60FFF784BF704700BF5191FF1F28
:101D70006487FF1F5291FF1F24B003400D2838B520
:101D80000FD9172801D80E380AE0A0F11A03052B45
:101D900001D8093804E0A0F12203062B47D81838EF
:101DA000C0B2244B1C5C244B1B780BB1FFF7EEFE3A
:101DB000210614D472B6214B214D1C6001232B70D7
:101DC00062B672B61D4B1B681A0601D51D4B1FE08B
:101DD0002B78002BEFD062B602F052FBF1E772B61F
:101DE000194B1A4D1A6814F0400F14BF22F010025C
:101DF00042F010021A60164B04F03F021A600123F1
:101E00002B7062B672B6124B1B681B0608D5114BBD
:101E1000186800232B7062B60F4B1B78184138BD31
:101E20002B78002BDCD062B602F02AFBEAE7002018
:101E300038BD00BF507400005291FF1F00B0034036
:101E40005491FF1F10B003400CB00B405391FF1F83
:101E500000B00B4010B00B405191FF1F084B1A68A7
:101E600042F480521A60074B1A78074B0AB180225D
:101E700000E0C0221A70054B80F30C0018807047F8
:101E80002C8004405591FF1F21C00C4000C00C4025
:101E90007FB5174B6A4603F110056E4618685968FE
:101EA000144603C40833AB422246F7D1114B1A78CB
:101EB00012F0020F1D4612D080229A7133229A72BC
:101EC00003225A7272B60C4C46F001062046B04707
:101ED00062B6237813F0700301D0237006E044F655
:101EE00021632A78D20701D4013BFAD104B070BD36
:101EF000687400000100024000000240B0F5006F6D
:101F000010B5044609D2064B1B78DB0701D4FFF756
:101F1000BFFF04F1A054207810BD002010BD00BF09
:101F200001000240024B1A6801321A60704700BF7C
:101F3000E091FF1F08B50B4C2368580301D501F051
:101F400083FB2368590501D500F0F0FD23681A05CD
:101F500001D501F03BF82368DB04ECD501F01CFA55
:101F6000E9E700BF3480044008B5FFF7E3FFFFFF57
:101F7000014B10221A807047002005407047FFFF78
:101F8000024A136818441060184670476887FF1F9C
:101F9000FEE7FFFFEFF313839BB9EFF3108098B9CF
:101FA000EFF3058323B10F2B04D9084A985C01E0B5
:101FB0004FF48070EFF311833BB1834238BF184672
:101FC00070474FF0FF30704718467047F0E300E06D
:101FD00010B50023B0FBF2F402FB1400092894BFF3
:101FE00030303730C0B2C85420460CB10133F1E76D
:101FF000CA18547022469A4206DA885CCC5C8C542B
:10200000C8540132013BF6E7084610BD1F4B10B51E
:102010001C681C60E00304D51D4B1A680AB11B68DC
:102020009847A10304D51A4B5A680AB15B689847D0
:10203000E20704D5164B1A6C0AB11B6C9847A3072C
:1020400004D5134B5A6C0AB15B6C9847200704D532
:102050000F4B9A6C0AB19B6C9847610704D50C4BE7
:10206000DA6C0AB1DB6C9847220304D5084B5A6E30
:102070000AB15B6E9847630306D5054BD3F8802001
:1020800012B1D3F88030984710BD00BFA0A0044023
:102090005891FF1F2C4B10B51C681C60200704D5FD
:1020A0002A4B5A6A0AB15B6A9847E10604D5274B66
:1020B0009A6A0AB19B6A9847620604D5234BDA6A8A
:1020C0000AB1DB6A9847230604D5204B1A6B0AB184
:1020D0001B6B9847A00604D51C4B5A6B0AB15B6B6F
:1020E0009847E10704D5194BDA6B0AB1DB6B9847C7
:1020F000A20704D5154B9A6D0AB19B6D98476307EB
:1021000004D5124BDA6D0AB1DB6D9847A00504D5F2
:102110000E4BDA6E0AB1DB6E9847E10504D50B4B26
:102120001A6F0AB11B6F9847620504D5074B5A6FA7
:102130000AB15B6F9847230504D5044B9A6F0AB127
:102140009B6F984710BD00BFA0B004405891FF1F7F
:102150001E4B10B51C681C60E00704D51C4B9A6828
:102160000AB19B689847210604D5194B5A690AB1F0
:102170005B699847E20604D5154B9A690AB19B69D9
:102180009847630704D5124BDA690AB1DB699847AF
:10219000200704D50E4B1A6A0AB11B6A9847A1079B
:1021A00004D50B4B9A6B0AB19B6B9847A20604D5DA
:1021B000074B1A6D0AB11B6D9847630604D5044B93
:1021C0005A6D0AB15B6D984710BD00BFA0C00440B6
:1021D0005891FF1F114B10B51C681C60E00404D51A
:1021E0000F4BDA680AB1DB689847A10404D50C4BA1
:1021F0001A690AB11B699847A20604D5084B1A6EE2
:102200000AB11B6E9847E30606D5054BD3F8842028
:1022100012B1D3F88430984710BD00BFA09004409D
:102220005891FF1F094B10B51C681C60A20704D50C
:10223000074B9A6E0AB19B6E9847E30704D5044B8F
:10224000DA6F0AB1DB6F984710BD00BFA0D0044021
:102250005891FF1F212830B531D8042A2FD8DFE844
:1022600002F00709050B03000B2306E00A2304E034
:10227000082302E00C2300E00923114A114D02EB70
:10228000C0025468104AC2F89C51104DC2F8A051C7
:102290000F4DC2F8A4510F4DC2F8A8510E4DC2F80F
:1022A000AC5172B622680D4D22F47022226042F0C9
:1022B000807242EA034345F82010236062B630BDC5
:1022C00078740000D52100000082FF1F0D2000005F
:1022D0009520000051210000252200005891FF1F89
:1022E000094B03EBC0035A6872B6136823F0877377
:1022F00023F4803343F080731360044B002243F8CF
:10230000202062B6704700BF787400005891FF1F0C
:10231000044B054900221A600A60044A106010222A
:102320001A60704714D0034004D0034000D003402B
:1023300018B1102828BF102000E00120014B1870B0
:10234000704700BF6C87FF1FF8B505460E46002496
:10235000274F47FA04F003F069FF4FF05E5103F096
:10236000B9FF0146304604F067F910B90134072C73
:10237000EED147FA04F003F059FF314604F05EF85D
:102380004FF07C5103F09CFE04F090F94FF6FF7380
:10239000984228BF1846EB1E012B06D8154B16494C
:1023A00000221A600A60154A1BE0A5F10903012BFF
:1023B00006D9A5F11403032B02D96B1F012B06D8F4
:1023C0000F4B104900221A600A600F4A09E0202DC5
:1023D00001D0192D0BD10D4B0D4900221A600A6056
:1023E0000C4A04F0070444F0080410601C60F8BDB7
:1023F000006CDC020090034004900340089003400E
:1024000000800340048003400880034000800B40AC
:1024100004800B4008800B40212810B518D80D4AC5
:1024200052F8303093F880423CB1012211B183F868
:10243000802010BD83F8002110BD02EBC00043686E
:102440001A6811B142F0030201E022F002021A60A0
:1024500010BD00BF78740000212806D8044B53F843
:10246000303093F80002C0B270470020704700BFC0
:1024700078740000212816D80B4A02EBC00301290A
:102480005B6852F8302004D182F880124FF4A272B7
:1024900008E0002082F8800211B94FF4807201E058
:1024A00040F203121A60704778740000282838B58B
:1024B000604A04460B4611D112780B2A04D8C2F1A7
:1024C0000C0201FA02F304E00C2A1CBF0C3A41FA98
:1024D00002F31846BDE83840FFF7C0BC117801256B
:1024E000002B05FA01F2D8BF002102DD934205D38B
:1024F0002946FFF791FF2046294697E00338C2B2EC
:10250000012A01D84C4A06E0202C01D0192C01D117
:102510004A4A00E04A4A126802FB0332CA401D28B8
:102520007BD8DFE800F0575F4E337A7A212A7A7A37
:102530007A7A7A7A7A7A7A3C450F187A707A7A7A45
:102540007A7A7A673F4B1A6003F5973340F2444238
:1025500003F5FA735FE03C4B1A6003F5973340F2E2
:10256000444203F5F87356E0384B1A6003F597338D
:1025700040F2444203F5F6734DE0354B1A6003F523
:10258000973340F2444203F5F47344E0314B1A6050
:1025900003F59F3340F2444203F5F0733BE02E4BCA
:1025A0001A6003F59F3340F2444203F5EE7332E0C4
:1025B0002A4B1A6003F59F3340F2444203F5EC7353
:1025C00029E0274B1A6003F59F3340F2444203F59C
:1025D000EA7320E0234B1A6003F580334FF4517205
:1025E000203318E0204B1A6003F580334FF451720A
:1025F0001C3310E01D4B1A60A3F5DB234FF451721E
:10260000A3F5F96307E01A4B1A60A3F5DB234FF437
:102610005172A3F2CC731A6038BD7F2B2046D4BF11
:1026200000210121FFF7F8FE20460121BDE83840D6
:10263000FFF720BF6C87FF1F0890034008800B4006
:10264000088003401080034018800340208003402E
:10265000288003403080034038800340408003409E
:1026600048800340109003401890034010800B40B6
:1026700018800B4072B60B4B0B491A680B4B1B684A
:10268000096862B6490102D5322A88BF0133C2F512
:10269000BB326021FF32B2FBF1F24FF47A7000FBE3
:1026A0000320704718E000E004ED00E0E091FF1F18
:1026B00038B50446FFF7DEFF054664B1FFF7DAFFE1
:1026C000401BB0F57A7F03D3013C04D005F57A7541
:1026D00001F0D6FEF2E738BD1F4B4FF4000210B5F3
:1026E0001A604FF080721A604FF000721A604FF05B
:1026F00080621A604FF000621A60184B184A194C39
:1027000000204BF6FF711860596028231360936016
:1027100013619361136293621363936309222260CE
:1027200004F58054043420606160A360236144F8A0
:10273000042C04F5FE2420600B4801600B490B605B
:102740008B600B4B1A60FFF793FA0420FFF7B0FF82
:10275000BDE8104001F06EBA08E100E004800340DB
:102760000C8003400080034008800B400C800B402D
:1027700000800B40194B1A6842F480621A60184AB4
:1027800000231370174A1370174A1370174A1370F7
:10279000174A1370174B40F213321A604FF45172FC
:1027A0005A60154BC0F344321A70C0F347125A7086
:1027B0000221042200F01F0098729A70D9745A7591
:1027C00088221A743C22DA700C4B40226FF44A7152
:1027D0001A700B444FF400521A6070473480044062
:1027E0006692FF1FE591FF1F6C92FF1F6792FF1F0C
:1027F000E491FF1F40A0044000A006402DE400E04B
:10280000134A937800F0030103F0EC030B434107F4
:1028100048BF43F01003937000F00F03042B0C49E2
:1028200003D18B7943F040038B715379C20603F0D7
:10283000EF03074A48BF43F01003537193798106B1
:1028400003F0EF0348BF43F010039371704700BFDC
:1028500000A0064008B50E4B1B685B0500D408BD00
:102860000C4B1A7802F0FF0312B101F009FEF7E7F2
:10287000094A4FF400511160084A0949D37040F2E7
:1028800003120A604A60074A1370074A137008BDB2
:1028900034800440E491FF1F84E100E000A0064082
:1028A00040A004406692FF1FE591FF1F38B5044623
:1028B000094B1B7803F0FF05002BF9D120460121BD
:1028C000FFF7D8FD20462946FFF7A6FD034B53F836
:1028D0003420034B1A6038BDE491FF1F7874000068
:1028E0006892FF1FF8B51D4B1B685A05064633D585
:1028F0001B4B1B680BB101221A701A4B1C78013458
:10290000402C1F4628BF0024174D2B78A34218D116
:10291000FFF740FB40280FDC144A13791B06F3D560
:102920002B7813490133402B28BF0023C95CDBB24D
:10293000C9B2D1712B70E7E7FF28E5DD01F0A0FDFA
:10294000E2E70B4BF6B21E550A4B01221A70074BF9
:10295000E4B2BC223C70DA70F8BD00BF34800440A1
:102960006892FF1F6C92FF1F6792FF1F00A0064036
:10297000E691FF1FE491FF1F274B1B685A052DE9C5
:10298000F04707468A4644D5244B1B680BB1012209
:102990001A703D4607EB0A039D4237D2DFF890805C
:1029A0001F4E98F8004096F800900134402C28BF44
:1029B00000245FFA89F9A1451DD11A4BBC22DA70B7
:1029C000FFF7E8FA40280FDC164A13791B060FD5EB
:1029D000337815490133402B28BF0023C95CDBB293
:1029E000C9B2D171337003E0FF2801DD01F048FD69
:1029F00033784B45E4D00C4B15F8012B1A550B4B93
:102A00000122E4B21A7088F80040C3E7054BBC22EB
:102A1000DA70BDE8F08700BF348004406892FF1F81
:102A20006792FF1F00A00640E691FF1FE491FF1F81
:102A30006C92FF1F08B5034B1B7813B101F020FD0A
:102A4000F9E708BDE491FF1F064A074B1B78107891
:102A5000DBB2C0B283422CBF3F3000F1FF30C01A5E
:102A6000704700BF6792FF1F6C92FF1F054B1878DD
:102A7000054B1B78C0B2DBB2984238BF4030C01A59
:102A8000704700BF6692FF1FE591FF1F094B0A4A7E
:102A900019781378DBB2994208D00133402B28BF54
:102AA00000230649C85CDBB2137070474FF0FF305B
:102AB000704700BF6692FF1FE591FF1F2692FF1F20
:102AC000084B1A78084B1B78DBB29A4207D00133C7
:102AD000402B28BF0023054AD05CC0B270474FF09E
:102AE000FF3070476692FF1FE591FF1F2692FF1F80
:102AF0000A4B1B685B050FD5094BDA7802F0CB0255
:102B0000DA7040225A74DA7842F03402DA70054BF7
:102B10001A78054BD2B21A70704700BF3480044057
:102B200000A00640E591FF1F6692FF1F30B5304BB5
:102B30001A7912F0300F23D072B69A7D02F0FF019D
:102B400022B9DA7940225A7462B619E062B6294B8A
:102B500029481A780478D2B2E4B21846244BDD79B9
:102B6000531C402B28BF0023A342EDB202D0234ABE
:102B7000D5541A464B1E13F0FF01EFD1D2B20270AA
:102B80001B4BD978C9B20C0620D51B7918061DD568
:102B90001B4B1C4A1D781378EDB2DBB21046AB42DA
:102BA0000CD0134A0133402B1479174C28BF002353
:102BB000E45CE4B2D471127D072AF0D9DBB2037071
:102BC0000B4B1A79120644BF7C22DA704B060ED5E5
:102BD000074B1A7912F0400F194608D00B4B002210
:102BE0001A700B4B1B6803B11A703C23CB7030BDBD
:102BF00000A006406692FF1FE591FF1F2692FF1F6F
:102C00006C92FF1F6792FF1FE691FF1FE491FF1F69
:102C10006892FF1F194B1A6842F400621A60184A42
:102C200000231370174A1370174A1370174A137052
:102C3000174A1370174B40F213321A604FF4517257
:102C40005A60154BC0F344321A70C0F347125A70E1
:102C500000F01F000422022198729A70D9745A75EC
:102C600088221A743C22DA700C4B40221A70A3F2AC
:102C70002B334FF400421A60704700BF3480044089
:102C8000D792FF1F6E92FF1FE092FF1FD892FF1F87
:102C90006D92FF1F0CB0044000B006402FE400E02E
:102CA000134A937800F0030103F0EC030B43410750
:102CB00048BF43F01003937000F00F03042B0C493E
:102CC00003D18B7943F040038B715379C20603F033
:102CD000EF03074A48BF43F010035371937981060D
:102CE00003F0EF0348BF43F010039371704700BF38
:102CF00000B0064008B50E4B1B681B0500D408BD8C
:102D00000C4B1A7802F0FF0312B101F0B9FBF7E7A0
:102D1000094A4FF400411160084A0949D37040F252
:102D200003120A604A60074A1370074A137008BD0D
:102D3000348004406D92FF1F84E100E000B0064043
:102D40000CB00440D792FF1F6E92FF1F38B50446A7
:102D5000094B1B7803F0FF05002BF9D12046012118
:102D6000FFF788FB20462946FFF756FB034B53F835
:102D70003420034B1A6038BD6D92FF1F7874000039
:102D8000DC92FF1FF8B51D4B1B681A05064633D5AC
:102D90001B4B1B680BB101221A701A4B1C780134B3
:102DA000282C1F4628BF0024174D2B78A34218D18A
:102DB000FFF7F0F840280FDC144A13791B06F3D50F
:102DC0002B7813490133282B28BF0023C95CDBB2C1
:102DD000C9B2D1712B70E7E7FF28E5DD01F050FBA8
:102DE000E2E70B4BF6B21E550A4B01221A70074B55
:102DF000E4B2BC223C70DA70F8BD00BF34800440FD
:102E0000DC92FF1FE092FF1FD892FF1F00B0064028
:102E10006F92FF1F6D92FF1F274B1B681A052DE94C
:102E2000F04707468A4644D5244B1B680BB1012264
:102E30001A703D4607EB0A039D4237D2DFF89080B7
:102E40001F4E98F8004096F800900134282C28BFB7
:102E500000245FFA89F9A1451DD11A4BBC22DA7012
:102E6000FFF798F840280FDC164A13791B060FD598
:102E7000337815490133282B28BF0023C95CDBB206
:102E8000C9B2D171337003E0FF2801DD01F0F8FA17
:102E900033784B45E4D00C4B15F8012B1A550B4BEE
:102EA0000122E4B21A7088F80040C3E7054BBC2247
:102EB000DA70BDE8F08700BF34800440DC92FF1F69
:102EC000D892FF1F00B006406F92FF1F6D92FF1F48
:102ED000E092FF1F08B5034B1B7813B101F0D0FA45
:102EE000F9E708BD6D92FF1F064A074B1B78107863
:102EF000DBB2C0B283422CBF273000F1FF30C01AD2
:102F0000704700BFD892FF1FE092FF1F054B187853
:102F1000054B1B78C0B2DBB2984238BF4030C01AB4
:102F2000704700BFD792FF1F6E92FF1F094B0A4ADE
:102F300019781378DBB2994208D00133402B28BFAF
:102F400000230649C85CDBB2137070474FF0FF30B6
:102F5000704700BFD792FF1F6E92FF1F9792FF1F0F
:102F6000084B1A78084B1B78DBB29A4207D0013322
:102F7000402B28BF0023054AD05CC0B270474FF0F9
:102F8000FF307047D792FF1F6E92FF1F9792FF1F6F
:102F90000A4B1B681B050FD5094BDA7802F0CB02F0
:102FA000DA7040225A74DA7842F03402DA70054B53
:102FB0001A78054BD2B21A70704700BF34800440B3
:102FC00000B006406E92FF1FD792FF1F30B5304B06
:102FD0001A7912F0300F23D072B69A7D02F0FF01F9
:102FE00022B9DA7940225A7462B619E062B6294BE6
:102FF00029481A780478D2B2E4B21846244BDD7915
:10300000531C402B28BF0023A342EDB202D0234A19
:10301000D5541A464B1E13F0FF01EFD1D2B2027005
:103020001B4BD978C9B20C0620D51B7918061DD5C3
:103030001B4B1C4A1D781378EDB2DBB21046AB4235
:103040000CD0134A0133282B1479174C28BF0023C6
:10305000E45CE4B2D471127D072AF0D9DBB20370CC
:103060000B4B1A79120644BF7C22DA704B060ED540
:10307000074B1A7912F0400F194608D00B4B00226B
:103080001A700B4B1B6803B11A703C23CB7030BD18
:1030900000B00640D792FF1F6E92FF1F9792FF1F4E
:1030A000E092FF1FD892FF1F6F92FF1F6D92FF1FCC
:1030B000DC92FF1F174B1A6842F480521A60164ABE
:1030C00000231370154A1370154A1370154A1370B4
:1030D000154A1370154A40F2133111604FF45171C3
:1030E0005160134AC0F344311170C0F3471100F02E
:1030F0001F0051709072937013742C23D3700D4B7A
:1031000040226FF44B711A700B444FF400321A6076
:10311000704700BF348004404B93FF1FE292FF1FB3
:103120005493FF1F4C93FF1FE192FF1F08C0044000
:1031300000C0064031E400E0134A937800F0030138
:1031400003F0EC030B43410748BF43F010039370B7
:1031500000F00F03042B0C4903D18B7943F040039B
:103160008B715379C20603F0EF03074A48BF43F05F
:10317000100353719379810603F0EF0348BF43F0C6
:1031800010039371704700BF00C0064008B50E4B96
:103190001B68DB0400D408BD0C4B1A7802F0FF0357
:1031A00012B101F06DF9F7E7094A4FF400311160EF
:1031B000084A0949D37040F203120A604A60074A7C
:1031C0001370074A137008BD34800440E192FF1F5A
:1031D00084E100E000C0064008C004404B93FF1F9C
:1031E000E292FF1F38B50446094B1B7803F0FF0538
:1031F000002BF9D120460121FFF73CF92046294652
:10320000FFF70AF9034B53F83420034B1A6038BD1B
:10321000E192FF1F787400005093FF1FF8B51D4B1B
:103220001B68DA04064633D51B4B1B680BB1012221
:103230001A701A4B1C780134282C1F4628BF002412
:10324000174D2B78A34218D1FEF7A4FE40280FDCBF
:10325000144A13791B06F3D52B7813490133282B15
:1032600028BF0023C95CDBB2C9B2D1712B70E7E77C
:10327000FF28E5DD01F004F9E2E70B4BF6B21E553D
:103280000A4B01221A70074BE4B2AC223C70DA7090
:10329000F8BD00BF348004405093FF1F5493FF1FBC
:1032A0004C93FF1F00C00640E392FF1FE192FF1FF7
:1032B00038B504464518AC4204D014F8010BFFF7AA
:1032C000ADFFF8E738BDFFFF08B5034B1B7813B11E
:1032D00001F0D6F8F9E708BDE192FF1F064A074B57
:1032E0001B781078DBB2C0B283422CBF273000F1CC
:1032F000FF30C01A704700BF4C93FF1F5493FF1F4D
:10330000054B1878054B1B78C0B2DBB2984238BF2A
:103310004030C01A704700BF4B93FF1FE292FF1F5F
:10332000094B0A4A19781378DBB2994208D0013365
:10333000402B28BF00230649C85CDBB213707047DE
:103340004FF0FF30704700BF4B93FF1FE292FF1F0B
:103350000B93FF1F084B1A78084B1B78DBB29A427D
:1033600007D00133402B28BF0023054AD05CC0B2F0
:1033700070474FF0FF3070474B93FF1FE292FF1FE3
:103380000B93FF1F024B1A78024BD2B21A70704790
:10339000E292FF1F4B93FF1F10B5214B1A79920643
:1033A0000FD5204AD87913781F490133402B09786B
:1033B00028BF00238B42C0B203D01C49C854DBB2E3
:1033C0001370174AD178C9B20C0616D513791806AE
:1033D00013D5174B17481C780378DBB29C4202D1F7
:1033E0006C23D37009E00133282B28BF0023124C33
:1033F000E45CDBB2E4B2D47103704B060ED5084B2B
:103400001A7912F0400F194608D00C4B00221A709E
:103410000B4B1B6803B11A702C23CB7010BD00BF7F
:1034200000C006404B93FF1FE292FF1F0B93FF1F4C
:103430005493FF1F4C93FF1FE392FF1FE192FF1F66
:103440005093FF1F1FB572B6154B70221A70154AA4
:10345000412111700F2102F8011C80221A701A7884
:103460001206FCD5104B186862B6104B984298BFF4
:103470000A2301AC98BF584321460A22FEF7A8FD53
:103480000023E15C0A4A29B102EB430001330A2B15
:103490004180F6D101335B00137004B010BD00BF52
:1034A0000000024007000240080002407F9698009A
:1034B000F687FF1FF0B50C4B0C4C1A7842F0020552
:1034C00004EBC50682F00102706009481A700678A4
:1034D000002E0CBF8827C82786F0010647EA014165
:1034E000067044F83510F0BDC093FF1F0080FF1F29
:1034F0003894FF1F431E032B10B510D872B6094A2B
:1035000052F8230048B1416842F82310064A018866
:1035100032F81340611A22F8131062B610BD002071
:1035200010BD00BFB093FF1F2496FF1F0138032872
:103530000AD872B6054B53F82030002013B1013081
:103540005B68FBE762B67047002070470494FF1F7A
:1035500010B572B60123174A1A4412F8012C12074B
:103560001CD59900144A52F831402CB902EB431390
:1035700008305860114B09E041F0010152F8314028
:1035800064B902EBC103083058600D4B42F831308A
:103590000C4B1A78013A1A7062B610BD0133052B34
:1035A000D9D162B6074B00221A70BDE8104000F076
:1035B0009FBB00BF887500000080FF1F880040008F
:1035C000C80040002E94FF1F431E032B30B532D895
:1035D000194A400140F01000104472B6174CE25CEA
:1035E000032A09D8DFE802F0160218050830022283
:1035F00013E00830042210E01148124A50F823402A
:1036000014B940F8231002E052F82300416042F858
:1036100023100FE0032200E00522E25410F0080F0F
:1036200001F108030A8843600CBF8823C82343EADA
:103630000243036062B630BD0080FF1F6C93FF1F22
:103640000494FF1F1494FF1F2DE9F84FAB4F3C78F3
:10365000E4B214F0040F3D4619D0A94B1B78A3B176
:10366000A84A117801F0FF0321B1013BDBB21370CE
:1036700003B900BEA44A117801F0FF0329B1013B50
:10368000DBB213700BB900F047FC04233B7004F06D
:10369000080303F0FF02002B00F063829B4B9C4C5D
:1036A0001A78D2B215094FEA920840F0E08104EB93
:1036B000C803596854F83830C3F38303013B0C2B1B
:1036C00000F2D281DFE813F091019101D001D00125
:1036D000D001D001D001D001AC01D001D001D00186
:1036E0000D008C4D0A684B688B486B6001218B4B39
:1036F00044F838302A60DFF85082017092B240F20C
:10370000816000238242C8F800302361A36117D88A
:10371000B2F5D06F80F01E81B2F5817F00F0CF80CE
:1037200006D8802A00F0BA80822A00F0BB802DE102
:1037300040F202339A4200F0D180B2F5A06F1CE053
:1037400042F22100824200F04D810ED8B2F5086F9E
:1037500000F09E80B2F5106F40F01881684B6C4EFF
:10376000AA781A7006F180090AE042F221218A4201
:1037700000F0088142F221339A4200F00B8105E10A
:10378000336A1B0603D5706A083800F0B1FA0836B0
:103790004E45F5D10026B146DFF8B0A156F80A0033
:1037A00028B1D0F804B000F0A3FA5846F8E74AF878
:1037B00006005B4BDFF898A1F05056F80A0028B1DC
:1037C000D0F804B000F094FA5846F8E7554B4AF8A0
:1037D0000600F050544B23F81900544B19F80320FD
:1037E000023A032A08D8DFE802F0020402040022A9
:1037F00000E0012203F8092009F10109B9F1040FE1
:1038000006F10406C8D14A4B00221A7001269A46D6
:10381000484A494B3244334412F8012C9B0012F0C1
:10382000080F1A704FEA860925D000F043FA38B124
:1038300004EB461308305860404B44F8393006E03A
:103840009AF8003044F8390001338AF8003000F06B
:1038500031FA49F0010338B104EBC302083050607B
:103860002E4A44F8332006E044F833009AF800303A
:1038700001338AF8003049F00202013649F00309A9
:103880000023052E44F8323044F83930C0D182E0AC
:103890001B4B2B4C1B7823700B467FE0284C23706E
:1038A00063707AE0AA88042A70D8254C92002370AD
:1038B0006370244B9B5C9E076FD521706DE0AA88D6
:1038C00002F07F03042B61DC6B88002B5ED191003A
:1038D0001C4A0A44117821F0020155E0AA8802F03E
:1038E0007F03042B52DC6B88002B4FD19100154ACB
:1038F0000A44117841F0020146E000BF80200740F1
:103900003794FF1FC193FF1F3994FF1F902007407A
:103910000080FF1F2494FF1F3894FF1FC800400041
:103920005C93FF1F1494FF1F2496FF1F6C93FF1FCF
:103930002E94FF1F8875000030C8011088004000D9
:103940002F94FF1FC02007405893FF1FB093FF1F05
:103950000494FF1F6A88A9889D4B53F8084CA3F173
:103960000C009CB133F80C6C964209D133F80A6C08
:103970008E4205D1120A032A0CBF237803890DE079
:103980000C33EAE7A978934A117004E0924B0F22B6
:103990001A7027E000231C4600E00223EE88B342A1
:1039A00038BF1E46402E34BF3546402520462946A6
:1039B000FFF780FD761B2C4403D1402D12D13546F4
:1039C00003E0402E34BF3546402520462946FFF708
:1039D00071FD761B2C4401D1402D03D17F4AC8F8DC
:1039E0000040168001227E4B3DE07E4B1A8842F259
:1039F00021039A4210D100237B4AC85C98540133BA
:103A0000072BF9D11368862B02D1784B0F221A703D
:103A100000200146FFF74EFD754B44F8383023E097
:103A2000744E3568B5B1DFF8B481B8F80090B9F1DB
:103A3000400F34BF4C46402428462146FFF73AFD4C
:103A4000C4EB09039BB2A8F800300BB9402C00D19D
:103A50002B193360634B1A88B2F5A06F04D1002292
:103A60005A709A78644B1A7001225D4B6CE004EB3B
:103A7000C806013D736802F00802A3F10800EDB228
:103A800002F0FF01002A36D000F032F95B485C4BAF
:103A900050F82520EAB1516840F8251002F10801DC
:103AA0007160595D03290BD8DFE801F002040608B4
:103AB000032104E0022102E0052100E00421595520
:103AC00016F0080F12880CBF8823C82343EA02436C
:103AD00042E05A5D032A07D8DFE802F040400204C2
:103AE000002206E0012204E016F0080F0CBF0222BB
:103AF00003225A5532E054F83820120C23F8082CCF
:103B000022B3DFF82CE123F8061C43F8041C5EF80E
:103B100025303C4913B94EF8250002E051F8253014
:103B20005860394B41F8250033F815100A4423F842
:103B3000152000F0BFF810B10830706006E0334B7C
:103B400044F838001A7801321A7007E0284B304ADE
:103B500016F0080F08BF134644F8383008233B70AE
:103B600074E5E0071FD51E4929482A4C02230B7033
:103B7000294B1A70294B186098602948D8601A613F
:103B80009A615C60144B0D2018702648FF23037067
:103B90002B700274244A1370244B9F221A70012345
:103BA0000B70BDE8F88F210604D50B4B0D221A705F
:103BB00080232B70A20705D51A4B1A78D2B21A703F
:103BC00002232B70E30644BF10232B70BDE8F88F4F
:103BD000987500004894FF1FC02007402C94FF1FD9
:103BE000942007402494FF1F2C96FF1FC193FF1FB2
:103BF000C80040005893FF1F982007400494FF1FFF
:103C00006C93FF1F5C93FF1F2496FF1F2E94FF1FD2
:103C1000880040007093FF1FC093FF1F0080FF1FAC
:103C2000C493FF1F882007408C2007408420074052
:103C3000B093FF1F08B5FFF705FC00221A4B0021C7
:103C4000D15098180832882A4160F7D1174A106875
:103C500040F48020106002F528326832C3F3072058
:103C60001070C3F307401B0E10751376FF2302F884
:103C70001C3C02F8143C02F88C3C012302F8083C7E
:103C800082F8641002F8183C094B70226FF45071EE
:103C90001A700B444FF400721A6003F1C04303F52D
:103CA000C82310221A7008BD0080FF1F3480044012
:103CB00049E400E072B60C4A1168B1FA81F30B2BAB
:103CC00002D962B6002070474FF00040D84021EA88
:103CD0000001116062B6054948225343C81800220A
:103CE000CA504260704700BF0C88FF1F0084FF1F4E
:103CF0000C4B4822C31AB3FBF2F30B2B11D80A4A20
:103D0000127822B1094A12780AB1FFF721BC72B6C3
:103D1000074A4FF0004121FA03F31168194311607B
:103D200062B670470084FF1F2E94FF1F3794FF1F59
:103D30000C88FF1F10B5104C23686BB120684288B7
:103D4000531C0244147A0288934212D3FFF7D0FF27
:103D5000094B00221A600DE0084B1B7813B94FF095
:103D6000FF3010BD0320FFF7C5FB20600028E5D120
:103D7000F5E74380204610BD4494FF1F3794FF1F92
:103D800010B50B4C236813B123686BB902E0094BE3
:103D90001B7813B94FF0FF3010BD0320FFF7AAFBCB
:103DA00020600028F0D1F5E75A881344187A10BD36
:103DB0004494FF1F3794FF1F044B9888044B1B68E3
:103DC0001BB11A885B88D31A184470472496FF1FCA
:103DD0004494FF1F2DE9F8432D4E012307460C465E
:103DE0003370002C4FD02B4D2B68A9462BBB4AF2C9
:103DF000F928294B1B7803F0FF020BB9327015E04C
:103E00000420FFF793FB072808D801233370FFF73E
:103E100051FFC9F8000080B91D4B1870B8F10108B6
:103E20001E4B01D01A782AB101221A704FF0FF30D0
:103E3000BDE8F88300F024FBDBE72968174A4888CF
:103E400000231370C0F14002944238BF224600F1B3
:103E5000080C10448C444880A41A934204D0F85CA7
:103E60000CF803000133F8E71F444B883F2B06D9B9
:103E700040230B800420FFF7A7FB00232B60084B97
:103E800005221A70ADE734702046BDE8F88300BF04
:103E90003A94FF1F3C94FF1F3794FF1F4094FF1F6D
:103EA0003994FF1F07B502AB012103F8010D184635
:103EB000FFF790FF03B05DF804FBFFFF2DE9F04131
:103EC000114B1B78F3B1114E114B3468114D012782
:103ED0001F7098464CB1002763882F700420238000
:103EE0002146FFF771FB376009E0FFF7E3FE01466B
:103EF00020B104202C70FFF767FB00E02F70002337
:103F000088F80030BDE8F0813794FF1F3C94FF1F14
:103F10003A94FF1F3994FF1F38B50E4B1B7803F0FE
:103F2000FF05ABB90C4C216831B14B880B800420E4
:103F3000FFF74AFB256038BDFFF7BCFE014620B104
:103F40000420BDE83840FFF73FBB044B01221A7044
:103F500038BD00BF3A94FF1F3C94FF1F3994FF1FE8
:103F6000F8B5164B164D1A6842F080721A60154B60
:103F70001A6842F001021A60134B2E681C688CB15B
:103F8000237A6BB123682F681B68204698472A68FC
:103F9000E188D21B120993B28A42A38088BFE380D2
:103FA0006469ECE72968094B891B09098AB21A8000
:103FB000074B1888814288BF1A80F8BDFCED00E0ED
:103FC000041000E0001000E04C94FF1F5294FF1F0B
:103FD0005094FF1F08B50368C9B21B68984708BD15
:103FE00008B50368C9B21B68984708BD08B50368DF
:103FF000C9B21B68984708BD08B50368C9B21B68F9
:10400000984708BD4B0803F1376000F5D830B0FB86
:10401000F1F0FEF7AFBB10B54B0803F1376000F5C8
:10402000D8301446B0FBF1F0FEF7A4FB2046BDE803
:104030001040FEF7E5BBFEF70DBC0846FEF736BCA8
:10404000FEF714BDFEF73CBDFEF720BDFEF7F2BC47
:10405000FEF74EBDFEF7F8BC08B50846FEF742FC79
:10406000012008BD08B50846FEF73CFC012008BD4C
:1040700010B5084614461146FEF77EFC204610BDDA
:1040800038B508460D4602F00FFF04462146284683
:10409000FEF772FC204638BD7047FFFF044B00223C
:1040A0001A714FF47A711A73024A99601A60704754
:1040B0005894FF1FE875000008B50368C9B21B6873
:1040C000984708BD08B50368C9B21B68984708BD82
:1040D00008B50368C9B21B68984708BD08B50368EE
:1040E000C9B21B68984708BD4B0803F1376000F55B
:1040F000D830B0FBF1F0FEF78DBD10B54B0803F1E1
:10410000376000F5D8301446B0FBF1F0FEF782FDC1
:104110002046BDE81040FEF7C3BDFEF7EBBD0846E4
:10412000FEF714BEFEF7F2BEFEF71ABFFEF7FEBEA4
:10413000FEF7D0BEFEF72CBFFEF7D6BE08B5084688
:10414000FEF720FE012008BD08B50846FEF71AFE5E
:10415000012008BD10B5084614461146FEF75CFE66
:10416000204610BD38B508460D4602F09DFE0446B7
:1041700021462846FEF750FE204638BD7047FFFF17
:10418000044B00221A714FF47A711A73024A996033
:104190001A6070476894FF1F3876000008B50368FE
:1041A000C9B21B68984708BD08B50368C9B21B6847
:1041B000984708BD08B50368C9B21B68984708BD91
:1041C00008B50368C9B21B68984708BD4B0803F1DE
:1041D000B76000F55840B0FBF1F0FEF76BBF10B5CB
:1041E0004B0803F1B76000F558401446B0FBF1F0FE
:1041F000FEF760FF2046BDE81040FEF79DBFFEF7CA
:10420000C5BF0846FEF7EEBFFFF77AB8FFF7A2B8C2
:10421000FFF786B8FFF758B8FFF7B4B8FFF75EB8F6
:1042200008B50846FEF7FAFF012008BD08B50846A4
:10423000FEF7F4FF012008BD10B5084614461146EC
:10424000FFF736F8204610BD38B508460D4602F097
:104250002BFE044621462846FFF72AF8204638BDA3
:104260007047FFFF044B00221A714FF47A711A73E2
:10427000024A99601A6070477894FF1F88760000A0
:1042800008B5034B01221A60024B1B68984708BD12
:104290000C7103409094FF1F08B5034B01221A6074
:1042A000024B5B68984708BD1C7103409094FF1F48
:1042B00008B5034B01221A60024B9B68984708BD62
:1042C0002C7103409094FF1F08B5034B01221A6024
:1042D000024BDB68984708BD3C7103409094FF1F78
:1042E000064B01221A6003F588333C331A6822F426
:1042F00000021A60024B00221A70704700700340DF
:104300008C94FF1F8268002310B51360027B01218B
:10431000541102F01F0201FA02F2084941F8242068
:10432000074A41785354D15C31B90133042BFAD197
:10433000BDE81040FFF7D4BF10BD00BF80E100E032
:104340008894FF1F037810B504460BB1FFF7DAFF1E
:104350000023237010BD70B506460D4600243319A6
:10436000284619790A220023013400F01DF8042C94
:1043700005D02B6828461B682E219847EFE720467A
:1043800070BDFFFF024B034A1A6000225A6070475B
:10439000A094FF1FD876000002F0E0B902F0DEB969
:1043A00002F0E4B902F0E2B970B505468AB022B96C
:1043B0000368C9B21B6898472CE0012A08BF0A228B
:1043C00021B930228DF82520212413E02124B1FBCE
:1043D000F2F002FB1011C9B209290AAE94BF3031C4
:1043E00037312644C9B206F8241C014610B1013CFD
:1043F000E4B2ECE733B1013CE4B20AAB23442D2232
:1044000003F8242C2B6801A95B6828462144C4F1D9
:10441000220298470AB070BD10B50446FFF792FF1C
:10442000204610BD04480549054A00230370802337
:10443000437302F05BB900BFA894FF1F194400004A
:104440006087FF1FFFF7B8BCFFF774BCFFF798BC8D
:10445000FFF734BD0846FFF725BD08461146FFF7B4
:10446000B9BC7047044B00221A714FF47A711A7369
:10447000024A99601A607047BC94FF1FE8760000FA
:1044800010B50E4C2378BBB901232370FFF794FCC1
:1044900008B1FFF7E6FFFEF7E9FA08B1FFF7FCFD08
:1044A000FEF734FD08B1FFF769FEFEF729FF08B1FA
:1044B000FFF7D6FE0023237010BD00BFCC94FF1F72
:1044C00010B504460021007EFDF7D4FF2368204686
:1044D0009B689847012010BD10B50446007EFDF78B
:1044E0004DFCA06010BDFFFF38B504460D461146D7
:1044F00000F056FD024B25762360204638BD00BFF4
:104500000877000073B580E80A00069B8360079B6C
:10451000C360002300250446036143618361C361D6
:104520000362436280F82830072380F8293016465A
:1045300004F13C012B46009501952C30FBF792FFCE
:1045400004F1480004F1580132462B4600950195CC
:10455000FBF788FF04F164000095019504F17401F4
:1045600032462B46FBF77EFF204602B070BD30B5C9
:104570000446C068036885B09B689847A0680368D4
:104580009B689847606803689B68984794F8283050
:10459000012B6DD0032B24D994F8293003F00403A8
:1045A00003F0FF01F3B1E068256A00F007FD281A67
:1045B000606201F03BFE04AB04F1740243F8040DA9
:1045C0008DE80C0004F164030FCBFBF755FFE06F9F
:1045D00002F046F8A0612061606C02F041F80146EB
:1045E00000E0002194F82830022B1DD9A068D8B132
:1045F00094F829309A0717D5A56900F0DFFC281A2E
:10460000E06101F013FE04AB04F1580243F8040D1D
:104610008DE80C0004F148030FCBFBF72DFF206E53
:1046200002F01EF80146206194F82830012B1CD9B5
:104630006068D0B194F82930DB0716D5256900F001
:10464000BDFC281A606101F0F1FD04AB04F13C02ED
:1046500043F8040D8DE80C0004F12C030FCBFBF79D
:104660000BFF606C01F0FCFF0146206800F0A2FB2C
:1046700005B030BD37B504460D46009201932C308D
:1046800004F13C01E26A2B46FBF7ECFE03B030BDBF
:1046900037B504460D4600920193483004F15801A5
:1046A000A26C2B46FBF7DEFE03B030BD37B50446E7
:1046B0000D4600920193643004F17401626E2B4642
:1046C000FBF7D0FE03B030BD80F829107047042AF4
:1046D00010B50C4602D900F016F812E080F8282038
:1046E000013A032A0DD8DFE802F00207090B00683F
:1046F000214600F05FFB04E0046102E0846100E019
:104700000462012010BD90F82820FFF7E0BF006888
:104710007047406808B100F051BC7047806808B12C
:1047200000F04CBC7047C06808B100F047BC70474F
:1047300090F82830032B05D0042B05D0022B05D18F
:104740000069704780697047006A704700207047B1
:10475000012070472DE9F8430646806903685B68CD
:1047600098470746FDF786FFD6F8249080464846CE
:1047700001F014FA02460B4600201A4901F0AEF887
:104780000446B0680D4601F0F7F902460B46204694
:10479000294601F057FA0446306A134B381A584339
:1047A0000D4601F043FD0146484601F093FD814668
:1047B000F069C0EB080001F035FD0146484601F004
:1047C0003DFE01F0EBF902460B462046294601F07A
:1047D00087F801F049FCC6F81C80B0603762BDE87C
:1047E000F88300BF0000F03F40420F0070B5044660
:1047F0000D4611461E4600F0D3FB084BA56100256F
:10480000236025626662FDF735FF6561E061A0699E
:1048100000F0DCFB2061204670BD00BF2077000067
:1048200072B60023436262B6704708B503685B68DE
:10483000984708BD10B50368017A1C7843681A7858
:10484000437A1A40837A0C4203F0030318BF43F003
:1048500004030AB143F008039A10013B82720D2B46
:1048600014D8DFE803F0070A0D0A13100707101326
:104870000A0D0A07C368013307E0C368013B04E07F
:10488000C368023301E0C368023BC36010BDFFFF91
:1048900008B5034BD3F88400FFF7CCFF08BD00BF79
:1048A000D094FF1F08B5034BD3F88000FFF7C2FF79
:1048B00008BD00BFD094FF1F08B5024BD86FFFF7AB
:1048C000B9FF08BDD094FF1F08B5024B986FFFF7E2
:1048D000B1FF08BDD094FF1F08B5024B586FFFF71A
:1048E000A9FF08BDD094FF1F08B5024B186FFFF752
:1048F000A1FF08BDD094FF1F08B5024BD86EFFF78B
:1049000099FF08BDD094FF1F08B5024B986EFFF7C2
:1049100091FF08BDD094FF1F08B5024B586EFFF7FA
:1049200089FF08BDD094FF1F08B5024B186EFFF732
:1049300081FF08BDD094FF1F08B5024BD86DFFF76B
:1049400079FF08BDD094FF1F08B5024B986DFFF7A3
:1049500071FF08BDD094FF1F08B5024B586DFFF7DB
:1049600069FF08BDD094FF1F08B5024B186DFFF713
:1049700061FF08BDD094FF1F08B5024BD86CFFF74C
:1049800059FF08BDD094FF1F08B5024B986CFFF784
:1049900051FF08BDD094FF1F08B5024B586CFFF7BC
:1049A00049FF08BDD094FF1F08B5024B186CFFF7F4
:1049B00041FF08BDD094FF1F08B5024BD86BFFF72D
:1049C00039FF08BDD094FF1F08B5024B986BFFF765
:1049D00031FF08BDD094FF1F08B5024B586BFFF79D
:1049E00029FF08BDD094FF1F08B5024B186BFFF7D5
:1049F00021FF08BDD094FF1F08B5024BD86AFFF70E
:104A000019FF08BDD094FF1F08B5024B986AFFF745
:104A100011FF08BDD094FF1F08B5024B586AFFF77D
:104A200009FF08BDD094FF1F08B5024B186AFFF7B5
:104A300001FF08BDD094FF1F08B5024BD869FFF7EE
:104A4000F9FE08BDD094FF1F08B5024B9869FFF727
:104A5000F1FE08BDD094FF1F08B5024B5869FFF75F
:104A6000E9FE08BDD094FF1F08B5024B1869FFF797
:104A7000E1FE08BDD094FF1F08B5024BD868FFF7D0
:104A8000D9FE08BDD094FF1F08B5024B9868FFF708
:104A9000D1FE08BDD094FF1F08B5024B5868FFF740
:104AA000C9FE08BDD094FF1F08B5024B1868FFF778
:104AB000C1FE08BDD094FF1F10B590F82830012B1F
:104AC000044604D872B61830FFF7B4FE00E072B6A0
:104AD000606A62B6A060E06010BDFFFF08B52128E3
:104AE00000F2D580DFE810F0220027002C00310012
:104AF00036003C00410046004B00500055005A0073
:104B00005F00640069006E00730078007D00820021
:104B100087008C00910096009B00A000A500AA00D1
:104B2000AF00B400B900BE00C300CD00594B002057
:104B300019605949A0E0574B0120596057499BE043
:104B4000544B02209960564996E0524B0320D9609D
:104B5000544991E04F4B04201961024652498CE0C0
:104B60004C4B05205961514986E04A4B062099611A
:104B70004F4981E0474B0720D9614E497CE0454BC6
:104B8000082019624C4977E0424B092059624B4991
:104B900072E0404B0A20996249496DE03D4B0B2081
:104BA000D962484968E03B4B0C201963464963E0F1
:104BB000384B0D20596345495EE0364B0E20996312
:104BC000434959E0334B0F20D963424954E0314BFC
:104BD0001020196440494FE02E4B112059643F4981
:104BE0004AE02C4B122099643D4945E0294B1320A3
:104BF000D9643C4940E0274B142019653A493BE011
:104C0000244B15205965394936E0224B1620996509
:104C1000374931E01F4B1720D96536492CE01D4B31
:104C200018201966344927E01A4B19205966334970
:104C300022E0184B1A20996631491DE0154B1B20C4
:104C4000D966304918E0134B1C2019672E4913E030
:104C5000104B1D2059672D490EE00E4B1E20996701
:104C60002B4909E00B4B1F20D9672A4904E0094B67
:104C7000C3F88010284920200422FDF7EBFA012018
:104C800008BD044B2120C3F884102449F4E7002018
:104C900008BD00BFD094FF1FA94A0000994A000038
:104CA000894A0000794A0000694A0000594A000018
:104CB000494A0000394A0000294A0000194A000008
:104CC000094A0000F9490000E9490000D9490000FB
:104CD000C9490000B9490000A949000099490000EC
:104CE00089490000794900006949000059490000DC
:104CF00049490000394900002949000019490000CC
:104D000009490000F9480000E9480000D9480000BE
:104D1000C9480000B9480000A548000091480000BB
:104D200070B504460D461946164600F039F91B4B7E
:104D3000236028460221FDF79DFB30460221FDF746
:104D400099FB174A52F8353003F50071A161012132
:104D500084F8201052F8362084F8211002F50070F3
:104D600000216162E0614FF47A4101397FF4FDAFC7
:104D700093F8003292F8002203F00103D20744BFF7
:104D800043F00203DBB284F82230284604F1180114
:104D9000FFF7A4FE84F82800204670BD3877000095
:104DA000787400000271024A02608160704700BF9F
:104DB0005077000038B5054680680C4600F0FEF8D4
:104DC000E343002CB8BF64428442BCBFC4EB04245C
:104DD00094FBF0F44FEAD3736B71B4BFE4B2FF24D9
:104DE0002B68AC715B682846984738BD806870476F
:104DF00010B50446806800F0E1F8A3795843637960
:104E0000FF2290FBF2F003B9404280B200B210BD25
:104E100008B501214079FDF72DFB012008BDFFFFFA
:104E20000271054A026001224171827164210022EF
:104E300082608181C2817047607700000D4B1A68E3
:104E400083689A4210B5044612D9837940793BB100
:104E5000E3892BB10021A171FDF7DEFAE28904E0BC
:104E60000121A171FDF7D8FAA289A3681344A360B8
:104E700010BD00BFE091FF1F82B164294FF06403B1
:104E800003D983810023C38106E0514389B2B1FB7A
:104E9000F3F1521A8181C281012070471046704798
:104EA00010B504460121007BFDF7E4FA607B012187
:104EB000FDF7E0FAE27BA37B1340FF2B07D1207BB9
:104EC0001049FDF741FA607B0E49FDF73DFAA07BE2
:104ED000FF2804D00121FDF7CDFAA07B06E0E07B9E
:104EE000FF2806D00121FDF7C5FA207B0549FDF713
:104EF0002BFA0820FDF71CFAA06803681B68984786
:104F000010BD00BF00409C4610B5C27B837B417939
:104F10001340FF2B0446007B0BD129B1A179FDF78B
:104F2000C5FA607B002111E0FDF7C0FA607BA17932
:104F30000CE0FDF771FA6179607B81F00101FDF70A
:104F40006BFAA07BA179FF2808BFE07BBDE8104089
:104F5000FDF7ACBA70B504460E46154619469DF8E5
:104F60001020FFF71FFF044B2360FF232673657398
:104F7000A373E373204670BD7077000080687047AC
:104F8000036810B55B68044698476369C01A01F06E
:104F90004DF9216901F09EF901F062FBE06010BD5E
:104FA000054A017102604FF07E5100228260C260AA
:104FB00001614261704700BF80770000C0687047A0
:104FC00081607047C1607047016170470069704738
:104FD000FCF794BF014B1888FFF7FABF1088FF1F3A
:104FE00008B5FCF755FF074B03F11402988833F816
:104FF000021F014493425980F8D1034B01221A70D9
:1050000008BD00BF0E88FF1F5895FF1F41608260DA
:10501000704701230370704770B50446002560682F
:1050200003689B68984760B15DB9A56860682B68A4
:105030001E680368DB689847C1B22846B04705463A
:10504000EDE7284670BD30B505468068036891B02D
:105050006A465B68984704466868036869465B6807
:1050600022469847031B5842584111B030BD08B53D
:10507000806803681B69984708BD38B50546002459
:10508000AB681859036804341B689847102CF7D193
:105090002B69186803681B6898470024AB69185986
:1050A000036804341B689847242CF7D10C20FCF7C4
:1050B0003BFE012038BDFFFF064A0171026004215A
:1050C000002282600173026101218261092201755F
:1050D000027770479877000070B5067B0023DAB23C
:1050E000B242846807D254F823502D798D4203F1DF
:1050F0000103F4D100E0002254F8220070BD037DCA
:105100008B4203698CBF53F821001868704703690C
:105110001868704770B5067F0023DAB2B24284691E
:1051200007D254F823502D798D4203F10103F4D1B5
:1051300000E0002254F8220070BD836918687047AF
:1051400008B5034B186803685B689847002008BDE2
:105150005C95FF1F08B5044B00211868FFF7CFFFCF
:10516000FFF76CFE002008BD6495FF1F10B50023FB
:10517000074A12785C1CDBB29A4207D9054A1268CA
:1051800052F8230000F004F92346F1E710BD00BFF8
:105190006095FF1F6895FF1F10B50024074B1A7814
:1051A000E3B29A4208D9064A126852F8230000F086
:1051B000F8F801340028F1D010BD00BF6095FF1F42
:1051C0006895FF1F70B5064600250A4B1B78ECB2A8
:1051D000A3420BD9084B1B6853F8240000F0FFF8DA
:1051E000B04205F10105F0D1204670BD4FF0FF300F
:1051F00070BD00BF6095FF1F6895FF1F2DE9F04748
:10520000044600F0ECF840B1204600F0E8F8FFF763
:10521000D9FF002801DA002500E001257DB12046F4
:1052200000F0DDF8411CC9B2204600F0D6F8204657
:1052300000F0D5F8FFF7C6FFC543ED0FEEE7244EAB
:10524000307801308000FFF7A9F83378B14607467F
:10525000204E9BB1A84699F800305FFA88F5AB4222
:105260000CD9204600F0BDF83368824653F825007B
:1052700000F0B7F8824508F1010822D92BB20135B8
:1052800047F8234099F800300133DBB2EDB289F8DA
:1052900000309D420BD204216FF0030211FB052266
:1052A00031688A5847F825200135EDB2F1E73068BA
:1052B00008B1FFF777F837602046BDE8F04700F007
:1052C0008EB8044B1B6853F8253047F82530C2E7E9
:1052D0006095FF1F6895FF1F2DE9F041804614205F
:1052E00016460F461D46FFF757F8334604463A4622
:1052F000414600F043F820469DF8181000F06DF884
:105300002046FFF77BFF064615B1204600F040F827
:105310003046BDE8F081FFFF37B5144D03682860C3
:105320001B680C469847124B1C60236820461B687C
:1053300098472868FFF7EBFE32214FF47A72FFF7A7
:105340009BFD0A230020009344F62061094A03468E
:10535000FFF7C2FF0C2300934FF47A71064A002333
:105360000220FFF7B9FF002003B030BD6495FF1F96
:105370005C95FF1F555100004151000030B50025DC
:1053800005704570817042608560C560036130BD05
:1053900010B5012303700446FDF76CF9A060207876
:1053A00010BD70B50578044635B1FDF763F9A36803
:1053B0006268C01A904201D200250CE01344A36039
:1053C000FDF758F9226906469047FDF753F9E3685F
:1053D0001844861BE660284670BD417070474078CF
:1053E000704780787047FFFF164B1A6842F480526E
:1053F0001A60154B154A1A60154ADA6002F18042AC
:105400001A61144A1A60144B1B78DA0755BF134A05
:10541000134A4FF410714FF4007113F0020F116032
:105420000CBF104910495B074FF4007254BF0F4B7B
:105430000F4B0A6054BF4FF410724FF400721A60A1
:10544000704700BF3C80044000C0024001401F0084
:105450000110003800001F805494FF1F18B0044052
:1054600008C004401CB004400CC0044014B0044008
:1054700004C00440034BDA789207FBD50222DA70AD
:10548000704700BF00600640094B1B7813B9094BF9
:105490001B782BB1084A1378202B03D90123037101
:1054A00000207047581C1070044A0120D1547047E6
:1054B000EA95FF1FAD95FF1FEB95FF1F8C95FF1F12
:1054C0007047FFFF024B1878024B1B78C01A7047D9
:1054D000E995FF1FE895FF1F064A074913780978E9
:1054E000994204D9591C1170044AD05C70474FF09E
:1054F000FF307047E895FF1FE995FF1FAE95FF1F2E
:10550000054B064A1B7812789A4286BF044AD05C43
:105510004FF0FF30704700BFE895FF1FE995FF1F70
:10552000AE95FF1F70B50E4B1B78144613B90D4B8B
:105530001B7893B10C4A1578C5F121039C4216469D
:1055400002D9012202711C460848224628442544FB
:1055500001F0B0FB3570204670BD184670BD00BF2D
:10556000EA95FF1FAD95FF1FEB95FF1F8C95FF1F61
:1055700010B5114BDB7803F0200303F0FF045BB997
:105580001220FCF7ADFE0D4B1B68A3B10C4A147042
:105590000C4A1078984710BD0B4A13780133DBB2E0
:1055A000012B137002D8094B1B7823B91220BDE8D8
:1055B0001040FCF795BE10BD006006408895FF1FA7
:1055C000E895FF1FE995FF1FD495FF1FAD95FF1FBD
:1055D000002202714FF47A710273024A8160026004
:1055E000704700BF387800000C4B00221A700C4B3B
:1055F000196841F0400119600A4B0B499A704FF449
:1056000019720A6041F8042C27225A7004229A71F8
:1056100020225A7180229A70704700BFAD95FF1FFB
:1056200034800440006006400CA0044010B53649A8
:10563000CB78DBB213F0100F03F0400201D12AB98E
:105640002CE01020C870002AF9D110BD03F004032B
:1056500003F0FF012D4AC3B1002313702C4A1370CD
:105660002C4B1B68144603B1984723782A4A1BB970
:105670002749137001200870234BD02199701278AC
:105680001A71264B01221A7039E001231370244B42
:1056900019701D4BC0229A701B7930E01A4CA27809
:1056A00002F0100202F0FF01AAB113F001030ED1C3
:1056B0001A4917480A780078904203D9531C0B7096
:1056C000154B9B5C2371104BD0229A7017E0C023BE
:1056D000A370237913E0134B03221970122012498F
:1056E000FCF7B8FD0E4A217913781F2BC9B206D8F2
:1056F0000648007818B1581C10700C4AD154024B5F
:105700000222DA7010BD00BF006006408595FF1FC1
:10571000EB95FF1FD095FF1F8C95FF1FEC95FF1F8A
:10572000E995FF1FD495FF1F71550000AE95FF1F2F
:10573000044B054A4900197001231370034A137082
:10574000704700BF8C95FF1FEA95FF1FEB95FF1F69
:10575000F8B51D4B1222DA709A7812F0200F0F461E
:10576000194601D0B4220AE0CB7803F0200303F0FD
:10577000FF02002BF8D1154B1A70134BB0229A7010
:105780000025134B1B78ECB2A34214D9114B0E4EDB
:105790001B5D3371FFF76EFEF378DBB2DA0704D5D9
:1057A000002C14BF0320022006E0DB0605F10105F2
:1057B000E7D5042000E0002017B1034B80229A7047
:1057C000054B00221A70F8BD00600640AD95FF1F22
:1057D000EB95FF1F8C95FF1FEA95FF1F2DE9F843FE
:1057E0001F46304B144600221A702F4B1A702F4A56
:1057F0001220D070907810F0200F9846104602D0FA
:10580000B42393700BE0C37803F0200303F0FF028E
:10581000002BF8D1264B1A70244BB0229A70490005
:10582000224D41F00101C9B22971FFF723FEE8784A
:1058300010F011002B4604D08023AB700020BDE88F
:10584000F88334B9002F0CBFA0238023AB70BDE8D0
:10585000F883012C0CBFA822A022AA701B79DFF8C4
:1058600058902646012E114D0BD0013EFFF702FE47
:10587000F6B2012E04BFA823AB702B7909F8013FC3
:10588000F0E7FFF7F7FD661EB023AB70F6B2094BE9
:105890002A799A550FB18023AB7088F800402046D2
:1058A000BDE8F883E895FF1FE995FF1F00600640FB
:1058B000AD95FF1FAE95FF1FAD95FF1F0123FFF7AD
:1058C0008DBF0121FFF744BF0148FFF781BE00BF34
:1058D000D895FF1F81F0004102E000BF83F0004334
:1058E00030B54FEA41044FEA430594EA050F08BF7B
:1058F00090EA020F1FBF54EA000C55EA020C7FEA3F
:10590000645C7FEA655C00F0E2804FEA5454D4EBBB
:105910005555B8BF6D420CDD2C4480EA020281EA85
:10592000030382EA000083EA010180EA020281EABD
:105930000303362D88BF30BD11F0004F4FEA01310F
:105940004FF4801C4CEA113102D0404261EB41011E
:1059500013F0004F4FEA03334CEA133302D05242A4
:1059600063EB430394EA050F00F0A780A4F1010460
:10597000D5F1200E0DDB02FA0EFC22FA05F280189A
:1059800041F1000103FA0EF2801843FA05F3594180
:105990000EE0A5F120050EF1200E012A03FA0EFCFF
:1059A00028BF4CF0020C43FA05F3C01851EBE37129
:1059B00001F0004507D54FF0000EDCF1000C7EEB46
:1059C00000006EEB0101B1F5801F1BD3B1F5001F84
:1059D0000CD349085FEA30004FEA3C0C04F10104A3
:1059E0004FEA445212F5800F80F09A80BCF1004FCC
:1059F00008BF5FEA500C50F1000041EB045141EA4E
:105A0000050130BD5FEA4C0C404141EB010111F44E
:105A1000801FA4F10104E9D191F0000F04BF0146F9
:105A20000020B1FA81F308BF2033A3F10B03B3F1D7
:105A300020020CDA0C3208DD02F1140CC2F10C0267
:105A400001FA0CF021FA02F10CE002F11402D8BFC5
:105A5000C2F1200C01FA02F120FA0CFCDCBF41EA91
:105A60000C019040E41AA2BF01EB0451294330BD60
:105A70006FEA04041F3C1CDA0C340EDC04F114043D
:105A8000C4F1200220FA04F001FA02F340EA030014
:105A900021FA04F345EA030130BDC4F10C04C4F15A
:105AA000200220FA02F001FA04F340EA030029463A
:105AB00030BD21FA04F0294630BD94F0000F83F484
:105AC000801306BF81F480110134013D4EE77FEA67
:105AD000645C18BF7FEA655C29D094EA050F08BFB3
