:1000000000800020BD010000391B0000051B00001E
:10001000051B0000051B0000051B0000051B000060
:10002000051B0000051B0000051B0000391B00001C
:10003000391B0000051B0000391B0000F51A0000E9
:10004000391B0000391B0000391B0000391B000060
:10005000391B0000391B0000391B0000391B000050
:10006000391B0000391B0000391B0000391B000040
:10007000391B0000391B0000391B0000391B000030
:10008000391B0000391B0000391B0000391B000020
:10009000391B0000391B0000391B0000391B000010
:1000A000D95B0000391B0000391B0000391B000020
:1000B000391B0000391B0000391B0000391B0000F0
:1000C000391B0000391B0000391B0000391B0000E0
:1000D000391B0000391B0000391B0000391B0000D0
:1000E000391B0000391B0000391B0000391B0000C0
:1000F000391B0000FD260000391B00009D2B00006D
:10010000391B0000692F0000391B0000391B00005B
:10011000391B0000391B0000391B0000391B00008F
:10012000391B0000391B0000391B0000391B00007F
:10013000391B0000391B0000391B0000391B00006F
:10014000391B0000391B0000391B0000391B00005F
:10015000513E0000693E0000813E0000993E0000D3
:10016000391B000019320000391B0000391B000048
:10017000391B0000391B0000391B0000391B00002F
:10018000391B0000391B0000391B0000391B00001F
:10019000391B0000391B0000391B0000391B00000F
:1001A000391B0000391B0000391B0000391B0000FF
:1001B000391B0000391B0000313B0000574B4CF24B
:1001C000205210B51A804DF628121A8000BF00BFC9
:1001D00001F0B6FC524B4FF010621A60514A9A601F
:1001E000514ADA60A3F53043203B1A6812F480725A
:1001F00004D14E490A604FF4A8521A604C4B1A7849
:10020000110703D51A7842F008021A70494B2A22C6
:100210001A700023484A49499818884204D248492C
:10022000595899500433F5E7464A474B9A424FF0E4
:10023000000302D242F8043BF7E74449444A5958C4
:1002400099500433B3F5DE7FF7D1424B802103F898
:10025000011B41498B42F9D1404B1A60404B0A22A5
:100260001A70A3F6FF7324221A70A02203F8012C3F
:100270003C4B1A789207FBD51A78D406FCD41A782E
:1002800002F00C02082AFAD1374B03221A704022DE
:100290005A70344B1A789006FBD51A785106FCD563
:1002A000324B334A1A6002225A60324B20221A70B3
:1002B0002C4B1B7803F00C030C2BF9D12E4B2F4A3F
:1002C0001A602F4B2F4A1A6000225A60072243F807
:1002D000042C2D4AC3F80C2D62B601F0E5FF134B38
:1002E0001B68DA0705D5294801F0FAFD284B294A91
:1002F0001A60294B1B785B0609D5254C254A2368D3
:10030000934204D1214801F0EBFD0023236006F065
:10031000D3FC01F01BFC01F093F8FEE70E20054032
:1003200030800440823F04000100002B14D00340C1
:1003300002D0074000E007406087FF1F6490FF1F66
:10034000A87E00006490FF1F9C9CFF1F000000001F
:100350000082FF1F00E400E05FE400E008ED00E041
:1003600000500640064006400440064044800440D9
:10037000000003010040064004800440C010050056
:1003800014E000E0FF7601000000202000DD68504E
:100390001CE00340A5C3945A00F00740FFFFFFFF95
:1003A000FFFFFFFFFFFFFFFFFFFFFFFFFFFFFFFF5D
:1003B000FFFFFFFFFFFFFFFFFFFFFFFFFFFFFFFF4D
:1003C000FFFFFFFFFFFFFFFFFFFFFFFFFFFFFFFF3D
:1003D000FFFFFFFFFFFFFFFFFFFFFFFFFFFFFFFF2D
:1003E000FFFFFFFFFFFFFFFFFFFFFFFFFFFFFFFF1D
:1003F000FFFFFFFFFFFFFFFFFFFFFFFFFFFFFFFF0D
:10040000FFFFFFFFFFFFFFFFFFFFFFFFFEFFFFFFFD
:1004100010B5054C237833B9044B13B10448AFF33E
:1004200000800123237010BD6490FF1F00000000B6
:10043000A87E000008B5064B1BB106480649AFF37D
:1004400000800648036813B1054B03B1984708BD07
:1004500000000000A87E00006890FF1F6490FF1F4E
:10046000000000004360009B8360019BC360002389
:1004700002600B604B6070472DE9FF4704AC04E954
:100480000F000C9C0D9D6768009E2968384606F099
:10049000EFF8314606F0F4F94FF07C5106F0F0F930
:1004A000216806F0E5F82060D5F8008001998146C2
:1004B000404606F0E5F902998246484606F0E0F922
:1004C0000146504606F0D4F839468146404606F0CB
:1004D000CDF8039906F0D4F9314606F085FA0146C5
:1004E000484606F0C5F8A0602B68636004F1080078
:1004F00004B0BDE8F087FFFF014B0360704700BF09
:10050000507800007047FFFF70B50269C368044669
:1005100012F0010F80684FEA62020E4618BF815840
:10052000104418BFCB589847A069A568636910F0BC
:10053000010F4FEA600031461CBF2A58D358024AC7
:1005400028441268984770BDA896FF1F10B5026A2C
:10055000C369806812F0010F4FEA620218BF845825
:10056000104418BFE358984710BDFFFF014B0360CC
:10057000704700BF5078000010B5034B036004467D
:1005800003F0F6FC204610BD5078000010B5034B78
:100590000360044603F0ECFC204610BD50780000D8
:1005A000F8B5054624260C46174608463246002173
:1005B00006F0F0FE2B6C63600123A360696B286872
:1005C0002660276106F05CF90E4906F00DFA0E4927
:1005D00006F056F96061696B686806F051F90949DF
:1005E00006F002FA084906F04BF9A061696BA868A9
:1005F00006F046F9034906F0F7F9034906F040F919
:10060000E061F8BD00007A440AE81C41F8B50546EF
:1006100024260C46174608463246002106F0BAFE4C
:100620006B6C63600223A360A96BE8682660276196
:1006300006F026F90A4906F0D7F96061A96B286926
:1006400006F01EF9064906F0CFF9A061A96B6869AA
:1006500006F016F9024906F0C7F9E061F8BD00BFDF
:1006600000007A44F8B5054624260C46174608468D
:100670003246002106F08EFE2B6C63600423E96B8A
:10068000A869A3602660276106F0FAF86061E96B4B
:10069000E86906F0F5F8A061286AE96B06F0F0F861
:1006A000E061F8BDF8B5054624260C461746084615
:1006B0003246002106F06EFEEB6C63600D23A360F2
:1006C000B5F924002660276106F086F84FF07851CE
:1006D00006F0D6F8024905F0CBFF6061F8BD00BF17
:1006E0000000A84138B528220C46054608460021DE
:1006F00006F050FE08490B22204606F0DBFE0023E0
:10070000E372296C636201220023E260216162616D
:10071000A361E361236238BD8878000038B52822E0
:100720000C4605460846002106F034FE0B22204602
:10073000084906F0BFFE0023E3720122E2606A6C02
:1007400022616362022200236261A361E36123628A
:1007500038BD00BF9278000038B528220C46054607
:100760000846002106F016FE0B222046084906F036
:10077000A1FE0023E3720122E260AA6C226163629F
:10078000042200236261A361E361236238BD00BFDC
:100790009C78000038B528220C4605460846002102
:1007A00006F0F8FD0B222046084906F083FE0023E0
:1007B000E3720122E260EA6C226163620D2200238F
:1007C0006261A361E361236238BD00BFA6780000C7
:1007D000002AF0B50CBF4FF064524FF06052002475
:1007E0000F4E104FA65B104D97FBF6F6B14255F831
:1007F000145004D3190706D542F0806203E0023496
:100800002E2CEDD1F6E75B0707D525F4704305F4F0
:10081000704542F0007243EA15152A430260F0BDAC
:10082000A87D0000006CDC02D87D000010B50446F5
:10083000FFF7CEFF204610BD10B5184B1A7802B353
:1008400072B61B78D90707D5154A16491468096886
:100850002140154C216011609A0707D5134A1149B0
:10086000146849682140104C616011605B0707D52E
:100870000F4B0C4A196892680A400B498A601A604B
:1008800062B60C4BDA68824207D00B4A1A60D86015
:100890000A4A40F0804018611A6010BDE89BFF1FB3
:1008A00080E100E0D09BFF1FDC9BFF1F84E100E0A4
:1008B00088E100E000C0024001401F0000001F80EE
:1008C0000A4B1B788BB1D90703D5094A1168094A2D
:1008D00011609A0703D5064A5168074A11605B0701
:1008E00003D5034B9A68054B1A607047E89BFF1FBE
:1008F000DC9BFF1F00E100E004E100E008E100E014
:1009000010B50A46097901719168816002F10C0104
:10091000034600F10C0403C984E8030002F114014A
:1009200003C903F114041C3284E8030092E80300B5
:1009300003F11C0484E80300184610BD70B580F86C
:100940002C20FF2280F8302080F82F2080F82E20E5
:100950005A1C02649A1C8AB04264DA1C0433C364D1
:10096000274B284E04930025274B826404460665D6
:100970004667C0F89860C0F8BC6080F8265080F8E0
:100980002D100390069301A9204B08935030019637
:10099000059507950995FFF7B3FF1D4B04931D4B74
:1009A000069301A91C4B089304F17400019603946B
:1009B000059507950995FFF7A3FF184B0493184B6E
:1009C000069301A9174B089304F19800019603942C
:1009D000059507950995FFF793FF134B0493134B68
:1009E000069304F1BC00124B019601A903940595EE
:1009F000079508930995FFF783FF20460AB070BD5D
:100A0000F90B000070780000A1050000E506000069
:100A10004B0C00000D0600001D0700009D0C00009F
:100A20006506000059070000EF0C0000A506000055
:100A3000950700002DE9F04190F93030013304466C
:100A40000F460CD1184B4FF00042DA625963DA6A54
:100A5000002AFCDA144B986BC0B2BDE8F08107267F
:100A6000002594F8300000214FF0010801F0BCFA95
:100A700008FA06F194F82E00394001F0B5FA94F81E
:100A8000300041466D0001F0AFFA94F82F00EDB24E
:100A900001F0CAFA08B145EA080516F1FF36E0D2BE
:100AA0002846BDE8F08100BF00C002402DE9F341B7
:100AB000044690461F4619B190F82C506B2102E075
:100AC00090F82D501D2194F8266086B1A06A05F09B
:100AD00005F9A06A036841461B689847A06A036845
:100AE00039461B689847A06A05F0C1F91BE001224E
:100AF00033460E4901A8FFF799FE0198FFF79CFEC7
:100B00002846314601F070FA48F040012046FFF7D0
:100B100091FF39462046FFF78DFF2846012101F05D
:100B200063FAFFF7CDFE02B0BDE8F081400D03008F
:100B30002DE9F347DDF82890044692461D4621B181
:100B400090F82C704FF06B0803E090F82D704FF088
:100B50001D0894F826602EB3A06A414605F0BEF841
:100B6000A06A036851461B689847A06A05F07FF9A0
:100B7000A06A41462A4605F077F9A06A03689B6897
:100B80009847A842F9DB0026F3B2AB42A06A06D22E
:100B90000368DB68984709F806000136F4E705F0BA
:100BA00066F922E013490122334601A8FFF73EFE11
:100BB0000198FFF741FE3846314601F015FA20460C
:100BC0004AF0C001FFF736FFF3B2AB4207D220462E
:100BD0000021FFF72FFF09F806000136F4E7384639
:100BE000012101F001FAFFF76BFE284602B0BDE8D3
:100BF000F08700BF400D03007FB502AB0021A822A3
:100C0000009306230446FFF793FF9DF80A309DF8F2
:100C10000B609DF80D509DF8090043EA06269DF8EB
:100C20000C3043EA05259DF8083043EA002000B265
:100C300005F0D2FD206030B205F0CEFD606028B234
:100C400005F0CAFDA06004B070BD7FB502AB002105
:100C50008822009306230446FFF76AFF9DF80A30B6
:100C60009DF80B609DF80D509DF8090043EA06269B
:100C70009DF80C3043EA05259DF8083043EA002032
:100C800000B205F0A9FDE06030B205F0A5FD2061DD
:100C900028B205F0A1FD606104B070BD7FB502AB64
:100CA0000121A822009306230446FFF741FF9DF887
:100CB0000A309DF80B609DF80D509DF8090043EA3D
:100CC00006269DF80C3043EA05259DF8083043EAD6
:100CD000002000B205F080FDA06130B205F07CFD7F
:100CE000E06128B205F078FD206204B070BD1FB548
:100CF00003AB00930021852202230446FFF718FF6F
:100D00009DF80D209DF80C3043EA0223A38404B023
:100D100010BD10B50446FFF76FFF2046FFF795FFA3
:100D20002046FFF7BBFF2046BDE81040FFF7DFBFBE
:100D30001FB50DF10F0300930123FFF7F9FE9DF896
:100D40000F0005B05DF804FB38B521220D460021E7
:100D50000446FFF7EDFF00F0C703002120462122E3
:100D60002B43FFF7A3FE102D0DD003D83DB1082D66
:100D700007D038BD182D08D0202D08D038BD054B20
:100D800006E0054B04E0054B02E0054B00E0054B97
:100D9000636338BD23DB793D23DBF93D5A643B3E79
:100DA00023DB793E5A643B3F38B525220D460021AE
:100DB0000446FFF7BDFF00F09F03002120462522D7
:100DC0002B43FFF773FE202D09D001D82DB138BD7C
:100DD000402D06D0602D06D038BD044B04E0044BF6
:100DE00002E0044B00E0044BA36338BD0AD7A33DE7
:100DF0000AD7233E0AD7A33E8FC2F53E38B5232239
:100E00000D4601210446FFF793FF00F0CF030121B7
:100E1000204623222B43FFF749FE102D04D0202D1E
:100E200004D02DB9034B02E0034B00E0034BE36316
:100E300038BD00BF295C0F3C295C8F3C295C8F3D8D
:100E400090F8263010B504461BB1806A04F0A2FE6B
:100E50003CE090F8300043B2013316D194F82D00F5
:100E6000012101F0EFF894F82C00012101F0EAF8DB
:100E700094F82D00012101F0B7F894F82C0001211D
:100E800001F0B2F804F086FD20E0012101F0DAF86B
:100E900094F82E00012101F0D5F894F82D000121DD
:100EA00001F0D0F894F82C00012101F0CBF894F86F
:100EB0002D00012101F098F894F82C00012101F097
:100EC00093F894F83000012101F08EF820460021BB
:100ED0000F22FFF72DFF492801D0002010BD20462A
:100EE00001210F22FFF724FFD428F6D1204600214C
:100EF00020226723FFF7DAFD204600212422F02379
:100F0000FFF7D4FD002120460B462622FFF7CEFD39
:100F100020460F2301212022FFF7C8FD2046002193
:100F20002422FFF705FF60F07F032422DBB2204676
:100F30000021FFF7BBFD20460021FFF705FF2046FB
:100F40000021FFF731FF20460021FFF757FF012066
:100F500010BD0B88584080EA0010C0B2C20082EA7F
:100F6000002282EA132383EA101008807047FFFFF3
:100F70002DE9F3411F46FE2383701D4BC77041715D
:100F800082719A79027101329A714FF6FF730446A9
:100F9000C61CADF8063000F10805AE4206D016F8C2
:100FA000010B0DF10601FFF7D4FFF6E794F803807B
:100FB000BDF806302380A8442E46464505D016F8D5
:100FC000010B2146FFF7C5FFF7E79DF820002146FA
:100FD000FFF7BFFFE3782288EA54E3781D442388B3
:100FE00007F108001B126B7002B0BDE8F08100BF72
:100FF0008090FF1F70B5044608460D46164600F067
:1010000044FB324601461423204603F0FFFF064B03
:101010002360002384F82030044BA5621B68C4F8C9
:101020002130204670BD00BFC0780000B0780000BD
:101030002DE9F04F0446AFB00027A06A00F025FB71
:10104000FDB229468146A06A00F021FB03F062F957
:10105000294690F80480A06A00F019FB03F06CF9AF
:1010600029468346A06A00F012FB03F05DF9294689
:101070000346A06A039300F00AFB03F04DF92946EA
:101080000646A06A00F003FB03F044F903F0DCFC21
:1010900029468246A06A00F0FAFA03F055F9039B4C
:1010A0000593002307960890ADF82430ADF826A0EC
:1010B000CDF810B0069304AE0FCE0CAD0FC596E878
:1010C00003000A238DF82F30872385E8030042466A
:1010D0000093494618230AA8FFF74AFF0137204624
:1010E0000AA903F021FE042FA7D12FB0BDE8F08F8D
:1010F0002DE9F04F0446B1B00026F5B22946A06AAA
:1011000000F0C9FA006805F081FD29461FFA80FC4D
:10111000A06ACDF808C000F0BEFA406805F076FD80
:10112000294682B2A06A039200F0B5FA806805F001
:101130006DFD294683B2A06A049300F0ACFA806981
:1011400005F064FD29461FFA80FBA06A00F0A3FAAF
:10115000C06905F05BFD29461FFA80FAA06A00F01D
:101160009AFA006A05F052FD29461FFA80F9A06A32
:1011700000F091FAC06805F049FD29461FFA80F891
:10118000A06A00F088FA006905F040FD294687B2A0
:10119000A06A00F080FA406905F038FD80B2059041
:1011A000A06A00F072FA049BDDF808C0039AADF85B
:1011B0002030059BADF81CC0ADF82A70ADF81E209C
:1011C000ADF822B0ADF824A0ADF82690ADF8288097
:1011D000ADF82C300DF11C0C8646BCE80F000EAFAC
:1011E0000FC7DCF800303B8014238DF837302C23F8
:1011F000714600932A4612230CA8FFF7B9FE013668
:1012000020460CA903F090FD022E7FF476AF31B09A
:10121000BDE8F08F032908B512D001D829B108BD67
:101220000A2905D0142907D008BD0368DB6809E046
:10123000BDE80840FFF7FCBEBDE80840FFF758BF17
:1012400003685B69984708BD10B590F820300344E7
:10125000044693F82110FFF7DDFF94F820300133A6
:10126000DBB2032B88BF002384F8203010BD00F0D0
:10127000F7BB70B5CB790B2B86B004460A463AD043
:101280000C2B6AD10D4601AB55F8080F696803C3F2
:10129000A86818609379032B11D0042B1DD0022B62
:1012A00060D10025E9B2A06A00F0F1F90135019999
:1012B000029A039B02F0E1FF042DF3D152E00025D6
:1012C000E9B2A06A00F0E3F901350199029A039BA3
:1012D00002F0E1FF042DF3D144E00025E9B2A06A59
:1012E00000F0D5F901350199029A039B02F0E1FF64
:1012F000042DF3D136E001F1080301AD01F118022C
:10130000186859682E4603C6083393423546F7D10C
:101310001B783370A06A002100F0B9F99DF81450D1
:1013200001992A4602F0D6FFA06A012100F0AFF928
:101330002A46029902F0CEFFA06A022100F0A7F926
:101340002A46039902F0C6FFA06A032100F09FF924
:1013500004992A4602F0BEFF04E006B0BDE87040E2
:1013600003F0F4BC012006B070BDFFFF034AC0F8D3
:10137000BC20C0F898204267026570475078000092
:1013800008B5024800F062F9002008BD9090FF1FE8
:1013900008B5024800F06DF9002008BD9090FF1FCD
:1013A00013B51A481A4903F0B9FF00241748194920
:1013B00003F0B7FF4FF47A72174B0094019413486F
:1013C000042104F075F8154B1870154B15481A7860
:1013D00042F004021A70FFF733FD18B11248FFF70C
:1013E0002FFD30B90948002102B0BDE8104004F0DB
:1013F00087B80E4B009401940448032141F28832CF
:1014000004F056F80A4B1870ECE700BFCC9AFF1FA7
:10141000D092FF1FA492FF1F81130000A092FF1F14
:101420001C99FF1F5894FF1F3895FF1F9113000050
:101430008C90FF1F0148002103F076BFCC9AFF1F5C
:1014400008B5FFF7ADFFFFF7F5FFFCE72DE9F34126
:10145000184C194EDFF87480184F194D00F000FB3E
:10146000204600F01FF90023304602210922FFF731
:1014700065FA41463A46304605F00EFC0023284600
:101480000F210A22FFF75AFA41463A4628460D4FE5
:1014900005F002FC002300932146324638462B46D5
:1014A00000F016F808483946224602B0BDE8F0417F
:1014B000FFF7A0BDD092FF1F5894FF1F6087FF1F4A
:1014C0003895FF1F9090FF1FA492FF1F6D1300001F
:1014D0002DE9F04F85B01F460E9B43600C46054634
:1014E00008460021904600F05DF900218346204621
:1014F00000F053F900218246204600F049F90646E3
:10150000282002F031FD314600224E4B814602F088
:101510008BFF2046002100F03BF905F108065346F9
:10152000494ACDF8009059460190304602F0D2FD6C
:101530002046012100F036F901218346204600F0C3
:101540002CF901218246204600F022F9014628208C
:10155000039102F009FD00223A4B0399814602F003
:1015600063FF2046012100F013F95346364ACDF8B7
:1015700000905946019005F1880002F0ABFD20462D
:10158000022100F00FF902218346204600F005F900
:1015900002218246204600F0FBF8014628200391F4
:1015A00002F0E2FC0022274B0399814602F03CFF47
:1015B0002046022100F0ECF85346234ACDF8009073
:1015C0005946019005F5847002F084FD2046032100
:1015D00000F0E8F803218346204600F0DEF80321FE
:1015E0008246204600F0D4F801462820039102F0FC
:1015F000BBFC0022134B0399814602F015FF2046E5
:10160000032100F0C5F8594601900F4ACDF800902B
:10161000534605F5C47002F05DFDC5F80882C5F8B3
:101620000C7203F0C3FA00242870301902218034B0
:1016300002F04DFEB4F5007FF7D1284605B0BDE8B5
:10164000F08F00BF0AD7A33C6F12833A10B504464F
:10165000083002F074FD04F1880002F070FD04F51A
:10166000847002F06CFD04F5C470BDE8104002F017
:1016700066BD10B50446D0F80802FFF74AFBD4F85F
:101680000C02BDE81040FFF744BB0078704700EB48
:10169000C11008307047823150F82100704700F0C7
:1016A000DFB9FFFF37B50446254600220D2103F0C0
:1016B000DDFA354B45F8103B1E21284603F05EFA53
:1016C00004F12800002101220A2303F04DF904F15E
:1016D0005400072108220B2303F046F904F180008F
:1016E000132112220C2303F03FF90D2304F1AC0067
:1016F0001121102203F038F904F1D8001A21142224
:1017000002F0DAFC04F1F4001B21152202F0D4FCF3
:1017100004F588701C21162202F0CEFC04F59670A8
:101720001D21172202F0C8FC0023009304F5A470C9
:101730002B460321042203F0FDF90123009304F555
:10174000AC702B460521062203F0F4F90223009326
:1017500004F5B4702B461721162203F0EBF903238E
:101760001422009304F5BC702B46152103F0E2F916
:10177000284645F6C05103F011FA2846034903F004
:101780000FFA204603B030BDF87800000080BB4659
:101790002C2303FB0100283070471C2303FB0100AE
:1017A000D830704700EB011000F5A4707047FFFFC0
:1017B000F0B5304B1B681B06FBD42F4B1B6813F096
:1017C0008002F6D172B62D4B1978002950D02C49E1
:1017D00008684F688E68CD680C693844143130440D
:1017E0000968284420440844C0F34E00254940F4C9
:1017F00000400860C86A0F6B4E6B8D6BCC6B384431
:10180000403130440968284420440844C0F34E0065
:101810001D4940F40040086001F10811143151F8ED
:10182000140C51F8107C51F80C6C51F8085C51F80C
:10183000044C096838443044284420440844C0F328
:101840004E00124940F400400860C86A0F6B4E6BAE
:101850008D6BCC6B384440313044096828442044B7
:101860000844C0F34E000A4940F4004008601A7072
:1018700062B6F0BD24B0034024B00B401996FF1FA0
:1018800038B003402CB0034030B003402CB00B40C4
:1018900030B00B4010B5204B2048214960221A700F
:1018A000E1225A701F4B204A1C78204B082C01D192
:1018B000012402E00A2C03D139240460132005E03E
:1018C0000C2C0CBF35243D240460122008601460E9
:1018D0001860174B17491B78174A03B101230B6097
:1018E0001360164B164A1978164B012901D880212E
:1018F0000BE0042901D8842107E0082901D88521BB
:1019000003E0102994BF86218721116019600E4BD6
:1019100001221A7010BD00BF0040074008B003400C
:101920000CB003406487FF1F08B00B400CB00B40A5
:101930001C96FF1F20B0034020B00B406587FF1F9F
:1019400024B0034024B00B401996FF1F0D2838B572
:101950000FD9172801D80E380AE0A0F11A03052B79
:1019600001D8093804E0A0F12203062B47D8183823
:10197000C0B2244B1C5C244B1B780BB1FFF718FF43
:10198000210614D472B6214B214D1C6001232B700B
:1019900062B672B61D4B1B681A0601D51D4B1FE0BF
:1019A0002B78002BEFD062B602F052FBF1E772B653
:1019B000194B1A4D1A6814F0400F14BF22F0100290
:1019C00042F010021A60164B04F03F021A60012325
:1019D0002B7062B672B6124B1B681B0608D5114BF2
:1019E000186800232B7062B60F4B1B78184138BD66
:1019F0002B78002BDCD062B602F02AFBEAE700204D
:101A000038BD00BF007900001996FF1F00B00340E9
:101A10001B96FF1F10B003400CB00B401A96FF1F1F
:101A200000B00B4010B00B401896FF1F084B1A680F
:101A300042F480521A60074B1A78074B0AB1802291
:101A400000E0C0221A70054B80F30C00188070472C
:101A50002C8004401C96FF1F21C00C4000C00C408D
:101A60007FB5174B6A4603F110056E461868596832
:101A7000144603C40833AB422246F7D1114B1A78FF
:101A800012F0020F1D4612D080229A7133229A72F0
:101A900003225A7272B60C4C46F001062046B0473B
:101AA00062B6237813F0700301D0237006E044F689
:101AB00021632A78D20701D4013BFAD104B070BD6A
:101AC000187900000100024000000240B0F5006FEC
:101AD00010B5044609D2064B1B78DB0701D4FFF78B
:101AE000BFFF04F1A054207810BD002010BD00BF3E
:101AF00001000240024B1A6801321A60704700BFB1
:101B0000A896FF1F08B50B4C2368580301D501F0B8
:101B100083FB2368590501D500F0F0FD23681A0501
:101B200001D501F03BF82368DB04ECD501F01CFA89
:101B3000E9E700BF3480044008B5FFF7E3FFFFFF8B
:101B4000014B10221A807047002005407047FFFFAC
:101B5000024A136818441060184670476887FF1FD0
:101B6000FEE7FFFFEFF313839BB9EFF3108098B903
:101B7000EFF3058323B10F2B04D9084A985C01E0E9
:101B80004FF48070EFF311833BB1834238BF1846A6
:101B900070474FF0FF30704718467047F0E300E0A1
:101BA00010B50023B0FBF2F402FB1400092894BF27
:101BB00030303730C0B2C85420460CB10133F1E7A1
:101BC000CA18547022469A4206DA885CCC5C8C545F
:101BD000C8540132013BF6E7084610BD1F4B10B553
:101BE0001C681C60E00304D51D4B1A680AB11B6811
:101BF0009847A10304D51A4B5A680AB15B68984705
:101C0000E20704D5164B1A6C0AB11B6C9847A30760
:101C100004D5134B5A6C0AB15B6C9847200704D566
:101C20000F4B9A6C0AB19B6C9847610704D50C4B1B
:101C3000DA6C0AB1DB6C9847220304D5084B5A6E64
:101C40000AB15B6E9847630306D5054BD3F8802035
:101C500012B1D3F88030984710BD00BFA0A0044057
:101C60002096FF1F2C4B10B51C681C60200704D564
:101C70002A4B5A6A0AB15B6A9847E10604D5274B9A
:101C80009A6A0AB19B6A9847620604D5234BDA6ABE
:101C90000AB1DB6A9847230604D5204B1A6B0AB1B8
:101CA0001B6B9847A00604D51C4B5A6B0AB15B6BA3
:101CB0009847E10704D5194BDA6B0AB1DB6B9847FB
:101CC000A20704D5154B9A6D0AB19B6D984763071F
:101CD00004D5124BDA6D0AB1DB6D9847A00504D527
:101CE0000E4BDA6E0AB1DB6E9847E10504D50B4B5B
:101CF0001A6F0AB11B6F9847620504D5074B5A6FDC
:101D00000AB15B6F9847230504D5044B9A6F0AB15B
:101D10009B6F984710BD00BFA0B004402096FF1FE6
:101D20001E4B10B51C681C60E00704D51C4B9A685C
:101D30000AB19B689847210604D5194B5A690AB124
:101D40005B699847E20604D5154B9A690AB19B690D
:101D50009847630704D5124BDA690AB1DB699847E3
:101D6000200704D50E4B1A6A0AB11B6A9847A107CF
:101D700004D50B4B9A6B0AB19B6B9847A20604D50E
:101D8000074B1A6D0AB11B6D9847630604D5044BC7
:101D90005A6D0AB15B6D984710BD00BFA0C00440EA
:101DA0002096FF1F114B10B51C681C60E00404D581
:101DB0000F4BDA680AB1DB689847A10404D50C4BD5
:101DC0001A690AB11B699847A20604D5084B1A6E16
:101DD0000AB11B6E9847E30606D5054BD3F884205D
:101DE00012B1D3F88430984710BD00BFA0900440D2
:101DF0002096FF1F094B10B51C681C60A20704D574
:101E0000074B9A6E0AB19B6E9847E30704D5044BC3
:101E1000DA6F0AB1DB6F984710BD00BFA0D0044055
:101E20002096FF1F212830B531D8042A2FD8DFE8AB
:101E300002F00709050B03000B2306E00A2304E068
:101E4000082302E00C2300E00923114A114D02EBA4
:101E5000C0025468104AC2F89C51104DC2F8A051FB
:101E60000F4DC2F8A4510F4DC2F8A8510E4DC2F843
:101E7000AC5172B622680D4D22F47022226042F0FD
:101E8000807242EA034345F82010236062B630BDF9
:101E900028790000A51D00000082FF1FDD1B000047
:101EA000651C0000211D0000F51D00002096FF1F8D
:101EB000094B03EBC0035A6872B6136823F08773AB
:101EC00023F4803343F080731360044B002243F803
:101ED000202062B6704700BF287900002096FF1FBF
:101EE000044B054900221A600A60044A106010225F
:101EF0001A60704714D0034004D0034000D0034060
:101F000018B1102828BF102000E00120014B1870E4
:101F1000704700BF6C87FF1FF8B505460E460024CA
:101F2000274F47FA04F004F057FC4FF05E5104F0DD
:101F3000A7FC0146304604F055FE10B90134072CC9
:101F4000EED147FA04F004F047FC314604F04CFDB2
:101F50004FF07C5104F08AFB04F07EFE4FF6FF73D5
:101F6000984228BF1846EB1E012B06D8154B164980
:101F700000221A600A60154A1BE0A5F10903012B33
:101F800006D9A5F11403032B02D96B1F012B06D828
:101F90000F4B104900221A600A600F4A09E0202DF9
:101FA00001D0192D0BD10D4B0D4900221A600A608A
:101FB0000C4A04F0070444F0080410601C60F8BDEB
:101FC000006CDC0200900340049003400890034042
:101FD00000800340048003400880034000800B40E1
:101FE00004800B4008800B40212810B518D80D4AFA
:101FF00052F8303093F880423CB1012211B183F89D
:10200000802010BD83F8002110BD02EBC0004368A2
:102010001A6811B142F0030201E022F002021A60D4
:1020200010BD00BF28790000212806D8044B53F8C2
:10203000303093F80002C0B270470020704700BFF4
:1020400028790000212816D80B4A02EBC003012989
:102050005B6852F8302004D182F880124FF4A272EB
:1020600008E0002082F8800211B94FF4807201E08C
:1020700040F203121A60704728790000282838B50A
:10208000604A04460B4611D112780B2A04D8C2F1DB
:102090000C0201FA02F304E00C2A1CBF0C3A41FACC
:1020A00002F31846BDE83840FFF7C0BC117801259F
:1020B000002B05FA01F2D8BF002102DD934205D3BF
:1020C0002946FFF791FF2046294697E00338C2B220
:1020D000012A01D84C4A06E0202C01D0192C01D14C
:1020E0004A4A00E04A4A126802FB0332CA401D28ED
:1020F0007BD8DFE800F0575F4E337A7A212A7A7A6C
:102100007A7A7A7A7A7A7A3C450F187A707A7A7A79
:102110007A7A7A673F4B1A6003F5973340F244426C
:1021200003F5FA735FE03C4B1A6003F5973340F216
:10213000444203F5F87356E0384B1A6003F59733C1
:1021400040F2444203F5F6734DE0354B1A6003F557
:10215000973340F2444203F5F47344E0314B1A6084
:1021600003F59F3340F2444203F5F0733BE02E4BFE
:102170001A6003F59F3340F2444203F5EE7332E0F8
:102180002A4B1A6003F59F3340F2444203F5EC7387
:1021900029E0274B1A6003F59F3340F2444203F5D0
:1021A000EA7320E0234B1A6003F580334FF4517239
:1021B000203318E0204B1A6003F580334FF451723E
:1021C0001C3310E01D4B1A60A3F5DB234FF4517252
:1021D000A3F5F96307E01A4B1A60A3F5DB234FF46C
:1021E0005172A3F2CC731A6038BD7F2B2046D4BF46
:1021F00000210121FFF7F8FE20460121BDE838400B
:10220000FFF720BF6C87FF1F0890034008800B403A
:102210000880034010800340188003402080034062
:1022200028800340308003403880034040800340D2
:1022300048800340109003401890034010800B40EA
:1022400018800B4072B60B4B0B491A680B4B1B687E
:10225000096862B6490102D5322A88BF0133C2F546
:10226000BB326021FF32B2FBF1F24FF47A7000FB17
:102270000320704718E000E004ED00E0A896FF1F7F
:1022800038B50446FFF7DEFF054664B1FFF7DAFF15
:10229000401BB0F57A7F03D3013C04D005F57A7575
:1022A00001F0D6FEF2E738BD1F4B4FF4000210B527
:1022B0001A604FF080721A604FF000721A604FF08F
:1022C00080621A604FF000621A60184B184A194C6D
:1022D00000204BF6FF71186059602823136093604B
:1022E0001361936113629362136393630922226003
:1022F00004F58054043420606160A360236144F8D5
:10230000042C04F5FE2420600B4801600B490B608F
:102310008B600B4B1A60FFF7BDFA0420FFF7B0FF8C
:10232000BDE8104001F06EBA08E100E0048003400F
:102330000C8003400080034008800B400C800B4061
:1023400000800B40194B1A6842F480621A60184AE8
:1023500000231370174A1370174A1370174A13702B
:10236000174A1370174B40F213321A604FF4517230
:102370005A60154BC0F344321A70C0F347125A70BA
:102380000221042200F01F0098729A70D9745A75C5
:1023900088221A743C22DA700C4B40226FF44A7186
:1023A0001A700B444FF400521A6070473480044096
:1023B0002E97FF1FAD96FF1F3497FF1F2F97FF1F0C
:1023C000AC96FF1F40A0044000A006402DE400E0B2
:1023D000134A937800F0030103F0EC030B43410729
:1023E00048BF43F01003937000F00F03042B0C4917
:1023F00003D18B7943F040038B715379C20603F00C
:10240000EF03074A48BF43F01003537193798106E5
:1024100003F0EF0348BF43F010039371704700BF10
:1024200000A0064008B50E4B1B685B0500D408BD34
:102430000C4B1A7802F0FF0312B101F009FEF7E726
:10244000094A4FF400511160084A0949D37040F21B
:1024500003120A604A60074A1370074A137008BDE6
:1024600034800440AC96FF1F84E100E000A00640E9
:1024700040A004402E97FF1FAD96FF1F38B50446BD
:10248000094B1B7803F0FF05002BF9D120460121F1
:10249000FFF7D8FD20462946FFF7A6FD034B53F86A
:1024A0003420034B1A6038BDAC96FF1F287900001A
:1024B0003097FF1FF8B51D4B1B685A05064633D5EC
:1024C0001B4B1B680BB101221A701A4B1C7801348C
:1024D000402C1F4628BF0024174D2B78A34218D14B
:1024E000FFF740FB40280FDC144A13791B06F3D595
:1024F0002B7813490133402B28BF0023C95CDBB282
:10250000C9B2D1712B70E7E7FF28E5DD01F0A0FD2E
:10251000E2E70B4BF6B21E550A4B01221A70074B2D
:10252000E4B2BC223C70DA70F8BD00BF34800440D5
:102530003097FF1F3497FF1F2F97FF1F00A0064003
:10254000AE96FF1FAC96FF1F274B1B685A052DE95F
:10255000F04707468A4644D5244B1B680BB101223D
:102560001A703D4607EB0A039D4237D2DFF8908090
:102570001F4E98F8004096F800900134402C28BF78
:1025800000245FFA89F9A1451DD11A4BBC22DA70EB
:10259000FFF7E8FA40280FDC164A13791B060FD51F
:1025A000337815490133402B28BF0023C95CDBB2C7
:1025B000C9B2D171337003E0FF2801DD01F048FD9D
:1025C00033784B45E4D00C4B15F8012B1A550B4BC7
:1025D0000122E4B21A7088F80040C3E7054BBC2220
:1025E000DA70BDE8F08700BF348004403097FF1FE9
:1025F0002F97FF1F00A00640AE96FF1FAC96FF1F4F
:102600003497FF1F08B5034B1B7813B101F020FD71
:10261000F9E708BDAC96FF1F064A074B1B781078F8
:10262000DBB2C0B283422CBF3F3000F1FF30C01A92
:10263000704700BF2F97FF1F3497FF1F054B187877
:10264000054B1B78C0B2DBB2984238BF4030C01A8D
:10265000704700BF2E97FF1FAD96FF1F094B0A4A18
:1026600019781378DBB2994208D00133402B28BF88
:1026700000230649C85CDBB2137070474FF0FF308F
:10268000704700BF2E97FF1FAD96FF1FEE96FF1FEE
:10269000084B1A78084B1B78DBB29A4207D00133FB
:1026A000402B28BF0023054AD05CC0B270474FF0D2
:1026B000FF3070472E97FF1FAD96FF1FEE96FF1F4E
:1026C0000A4B1B685B050FD5094BDA7802F0CB0289
:1026D000DA7040225A74DA7842F03402DA70054B2C
:1026E0001A78054BD2B21A70704700BF348004408C
:1026F00000A00640AD96FF1F2E97FF1F30B5304B50
:102700001A7912F0300F23D072B69A7D02F0FF01D1
:1027100022B9DA7940225A7462B619E062B6294BBE
:1027200029481A780478D2B2E4B21846244BDD79ED
:10273000531C402B28BF0023A342EDB202D0234AF2
:10274000D5541A464B1E13F0FF01EFD1D2B20270DE
:102750001B4BD978C9B20C0620D51B7918061DD59C
:102760001B4B1C4A1D781378EDB2DBB21046AB420E
:102770000CD0134A0133402B1479174C28BF002387
:10278000E45CE4B2D471127D072AF0D9DBB20370A5
:102790000B4B1A79120644BF7C22DA704B060ED519
:1027A000074B1A7912F0400F194608D00B4B002244
:1027B0001A700B4B1B6803B11A703C23CB7030BDF1
:1027C00000A006402E97FF1FAD96FF1FEE96FF1F3D
:1027D0003497FF1F2F97FF1FAE96FF1FAC96FF1F6A
:1027E0003097FF1F194B1A6842F400621A60184AAA
:1027F00000231370174A1370174A1370174A137087
:10280000174A1370174B40F213321A604FF451728B
:102810005A60154BC0F344321A70C0F347125A7015
:1028200000F01F000422022198729A70D9745A7520
:1028300088221A743C22DA700C4B40221A70A3F2E0
:102840002B334FF400421A60704700BF34800440BD
:102850009F97FF1F3697FF1FA897FF1FA097FF1F87
:102860003597FF1F0CB0044000B006402FE400E095
:10287000134A937800F0030103F0EC030B43410784
:1028800048BF43F01003937000F00F03042B0C4972
:1028900003D18B7943F040038B715379C20603F067
:1028A000EF03074A48BF43F0100353719379810641
:1028B00003F0EF0348BF43F010039371704700BF6C
:1028C00000B0064008B50E4B1B681B0500D408BDC0
:1028D0000C4B1A7802F0FF0312B101F0B9FBF7E7D5
:1028E000094A4FF400411160084A0949D37040F287
:1028F00003120A604A60074A1370074A137008BD42
:10290000348004403597FF1F84E100E000B00640AA
:102910000CB004409F97FF1F3697FF1F38B5044641
:10292000094B1B7803F0FF05002BF9D1204601214C
:10293000FFF788FB20462946FFF756FB034B53F869
:102940003420034B1A6038BD3597FF1F28790000EB
:10295000A497FF1FF8B51D4B1B681A05064633D513
:102960001B4B1B680BB101221A701A4B1C780134E7
:10297000282C1F4628BF0024174D2B78A34218D1BE
:10298000FFF7F0F840280FDC144A13791B06F3D543
:102990002B7813490133282B28BF0023C95CDBB2F5
:1029A000C9B2D1712B70E7E7FF28E5DD01F050FBDC
:1029B000E2E70B4BF6B21E550A4B01221A70074B89
:1029C000E4B2BC223C70DA70F8BD00BF3480044031
:1029D000A497FF1FA897FF1FA097FF1F00B00640F6
:1029E0003797FF1F3597FF1F274B1B681A052DE9E7
:1029F000F04707468A4644D5244B1B680BB1012299
:102A00001A703D4607EB0A039D4237D2DFF89080EB
:102A10001F4E98F8004096F800900134282C28BFEB
:102A200000245FFA89F9A1451DD11A4BBC22DA7046
:102A3000FFF798F840280FDC164A13791B060FD5CC
:102A4000337815490133282B28BF0023C95CDBB23A
:102A5000C9B2D171337003E0FF2801DD01F0F8FA4B
:102A600033784B45E4D00C4B15F8012B1A550B4B22
:102A70000122E4B21A7088F80040C3E7054BBC227B
:102A8000DA70BDE8F08700BF34800440A497FF1FD0
:102A9000A097FF1F00B006403797FF1F3597FF1F15
:102AA000A897FF1F08B5034B1B7813B101F0D0FAAC
:102AB000F9E708BD3597FF1F064A074B1B781078CA
:102AC000DBB2C0B283422CBF273000F1FF30C01A06
:102AD000704700BFA097FF1FA897FF1F054B1878EE
:102AE000054B1B78C0B2DBB2984238BF4030C01AE9
:102AF000704700BF9F97FF1F3697FF1F094B0A4A79
:102B000019781378DBB2994208D00133402B28BFE3
:102B100000230649C85CDBB2137070474FF0FF30EA
:102B2000704700BF9F97FF1F3697FF1F5F97FF1FDC
:102B3000084B1A78084B1B78DBB29A4207D0013356
:102B4000402B28BF0023054AD05CC0B270474FF02D
:102B5000FF3070479F97FF1F3697FF1F5F97FF1F3C
:102B60000A4B1B681B050FD5094BDA7802F0CB0224
:102B7000DA7040225A74DA7842F03402DA70054B87
:102B80001A78054BD2B21A70704700BF34800440E7
:102B900000B006403697FF1F9F97FF1F30B5304BA0
:102BA0001A7912F0300F23D072B69A7D02F0FF012D
:102BB00022B9DA7940225A7462B619E062B6294B1A
:102BC00029481A780478D2B2E4B21846244BDD7949
:102BD000531C402B28BF0023A342EDB202D0234A4E
:102BE000D5541A464B1E13F0FF01EFD1D2B202703A
:102BF0001B4BD978C9B20C0620D51B7918061DD5F8
:102C00001B4B1C4A1D781378EDB2DBB21046AB4269
:102C10000CD0134A0133282B1479174C28BF0023FA
:102C2000E45CE4B2D471127D072AF0D9DBB2037000
:102C30000B4B1A79120644BF7C22DA704B060ED574
:102C4000074B1A7912F0400F194608D00B4B00229F
:102C50001A700B4B1B6803B11A703C23CB7030BD4C
:102C600000B006409F97FF1F3697FF1F5F97FF1F1B
:102C7000A897FF1FA097FF1F3797FF1F3597FF1FCC
:102C8000A497FF1F174B1A6842F480521A60164A25
:102C900000231370154A1370154A1370154A1370E8
:102CA000154A1370154A40F2133111604FF45171F7
:102CB0005160134AC0F344311170C0F3471100F062
:102CC0001F0051709072937013742C23D3700D4BAE
:102CD00040226FF44B711A700B444FF400321A60AB
:102CE000704700BF348004401398FF1FAA97FF1F4E
:102CF0001C98FF1F1498FF1FA997FF1F08C00440CE
:102D000000C0064031E400E0134A937800F003016C
:102D100003F0EC030B43410748BF43F010039370EB
:102D200000F00F03042B0C4903D18B7943F04003CF
:102D30008B715379C20603F0EF03074A48BF43F093
:102D4000100353719379810603F0EF0348BF43F0FA
:102D500010039371704700BF00C0064008B50E4BCA
:102D60001B68DB0400D408BD0C4B1A7802F0FF038B
:102D700012B101F06DF9F7E7094A4FF40031116023
:102D8000084A0949D37040F203120A604A60074AB0
:102D90001370074A137008BD34800440A997FF1FC1
:102DA00084E100E000C0064008C004401398FF1F03
:102DB000AA97FF1F38B50446094B1B7803F0FF059F
:102DC000002BF9D120460121FFF73CF92046294686
:102DD000FFF70AF9034B53F83420034B1A6038BD50
:102DE000A997FF1F287900001898FF1FF8B51D4B01
:102DF0001B68DA04064633D51B4B1B680BB1012256
:102E00001A701A4B1C780134282C1F4628BF002446
:102E1000174D2B78A34218D1FEF7A4FE40280FDCF3
:102E2000144A13791B06F3D52B7813490133282B49
:102E300028BF0023C95CDBB2C9B2D1712B70E7E7B0
:102E4000FF28E5DD01F004F9E2E70B4BF6B21E5571
:102E50000A4B01221A70074BE4B2AC223C70DA70C4
:102E6000F8BD00BF348004401898FF1F1C98FF1F56
:102E70001498FF1F00C00640AB97FF1FA997FF1FC4
:102E800038B504464518AC4204D014F8010BFFF7DE
:102E9000ADFFF8E738BDFFFF08B5034B1B7813B152
:102EA00001F0D6F8F9E708BDA997FF1F064A074BBE
:102EB0001B781078DBB2C0B283422CBF273000F100
:102EC000FF30C01A704700BF1498FF1F1C98FF1FE7
:102ED000054B1878054B1B78C0B2DBB2984238BF5F
:102EE0004030C01A704700BF1398FF1FAA97FF1FFA
:102EF000094B0A4A19781378DBB2994208D001339A
:102F0000402B28BF00230649C85CDBB21370704712
:102F10004FF0FF30704700BF1398FF1FAA97FF1FA5
:102F2000D397FF1F084B1A78084B1B78DBB29A42E5
:102F300007D00133402B28BF0023054AD05CC0B224
:102F400070474FF0FF3070471398FF1FAA97FF1F7D
:102F5000D397FF1F024B1A78024BD2B21A707047F8
:102F6000AA97FF1F1398FF1F10B5214B1A799206DD
:102F70000FD5204AD87913781F490133402B09789F
:102F800028BF00238B42C0B203D01C49C854DBB217
:102F90001370174AD178C9B20C0616D513791806E2
:102FA00013D5174B17481C780378DBB29C4202D12B
:102FB0006C23D37009E00133282B28BF0023124C67
:102FC000E45CDBB2E4B2D47103704B060ED5084B5F
:102FD0001A7912F0400F194608D00C4B00221A70D3
:102FE0000B4B1B6803B11A702C23CB7010BD00BFB4
:102FF00000C006401398FF1FAA97FF1FD397FF1F1B
:103000001C98FF1F1498FF1FAB97FF1FA997FF1F66
:103010001898FF1F1FB572B6154B70221A70154A0B
:10302000412111700F2102F8011C80221A701A78B8
:103030001206FCD5104B186862B6104B984298BF28
:103040000A2301AC98BF584321460A22FEF7A8FD87
:103050000023E15C0A4A29B102EB430001330A2B49
:103060004180F6D101335B00137004B010BD00BF86
:103070000000024007000240080002407F969800CE
:10308000F687FF1FF0B50C4B0C4C1A7842F0020586
:1030900004EBC50682F00102706009481A700678D8
:1030A000002E0CBF8827C82786F0010647EA014199
:1030B000067044F83510F0BD8898FF1F0080FF1F90
:1030C0000099FF1F431E032B10B510D872B6094A92
:1030D00052F8230048B1416842F82310064A01889B
:1030E00032F81340611A22F8131062B610BD0020A6
:1030F00010BD00BF7898FF1F889CFF1F0138032870
:103100000AD872B6054B53F82030002013B10130B5
:103110005B68FBE762B6704700207047CC98FF1FE2
:1031200010B572B60123174A1A4412F8012C12077F
:103130001CD59900144A52F831402CB902EB4313C4
:1031400008305860114B09E041F0010152F831405C
:1031500064B902EBC103083058600D4B42F83130BE
:103160000C4B1A78013A1A7062B610BD0133052B68
:10317000D9D162B6074B00221A70BDE8104000F0AA
:103180009FBB00BF387A00000080FF1F880040000E
:10319000C8004000F698FF1F431E032B30B532D8FD
:1031A000194A400140F01000104472B6174CE25C1E
:1031B000032A09D8DFE802F01602180508300222B7
:1031C00013E00830042210E01148124A50F823405E
:1031D00014B940F8231002E052F82300416042F88D
:1031E00023100FE0032200E00522E25410F0080F44
:1031F00001F108030A8843600CBF8823C82343EA0F
:103200000243036062B630BD0080FF1F3498FF1F89
:10321000CC98FF1FDC98FF1F2DE9F84FAB4F3C788F
:10322000E4B214F0040F3D4619D0A94B1B78A3B1AA
:10323000A84A117801F0FF0321B1013BDBB2137002
:1032400003B900BEA44A117801F0FF0329B1013B84
:10325000DBB213700BB900F047FC04233B7004F0A1
:10326000080303F0FF02002B00F063829B4B9C4C91
:103270001A78D2B215094FEA920840F0E08104EBC7
:10328000C803596854F83830C3F38303013B0C2B4F
:1032900000F2D281DFE813F091019101D001D00159
:1032A000D001D001D001D001AC01D001D001D001BA
:1032B0000D008C4D0A684B688B486B6001218B4B6D
:1032C00044F838302A60DFF85082017092B240F240
:1032D000816000238242C8F800302361A36117D8BF
:1032E000B2F5D06F80F01E81B2F5817F00F0CF8003
:1032F00006D8802A00F0BA80822A00F0BB802DE137
:1033000040F202339A4200F0D180B2F5A06F1CE087
:1033100042F22100824200F04D810ED8B2F5086FD2
:1033200000F09E80B2F5106F40F01881684B6C4E33
:10333000AA781A7006F180090AE042F221218A4235
:1033400000F0088142F221339A4200F00B8105E13E
:10335000336A1B0603D5706A083800F0B1FA0836E4
:103360004E45F5D10026B146DFF8B0A156F80A0067
:1033700028B1D0F804B000F0A3FA5846F8E74AF8AC
:1033800006005B4BDFF898A1F05056F80A0028B110
:10339000D0F804B000F094FA5846F8E7554B4AF8D4
:1033A0000600F050544B23F81900544B19F8032031
:1033B000023A032A08D8DFE802F0020402040022DD
:1033C00000E0012203F8092009F10109B9F1040F15
:1033D00006F10406C8D14A4B00221A7001269A460B
:1033E000484A494B3244334412F8012C9B0012F0F6
:1033F000080F1A704FEA860925D000F043FA38B159
:1034000004EB461308305860404B44F8393006E06E
:103410009AF8003044F8390001338AF8003000F09F
:1034200031FA49F0010338B104EBC30208305060AF
:103430002E4A44F8332006E044F833009AF800306E
:1034400001338AF8003049F00202013649F00309DD
:103450000023052E44F8323044F83930C0D182E0E0
:103460001B4B2B4C1B7823700B467FE0284C2370A2
:1034700063707AE0AA88042A70D8254C92002370E1
:103480006370244B9B5C9E076FD521706DE0AA880A
:1034900002F07F03042B61DC6B88002B5ED191006E
:1034A0001C4A0A44117821F0020155E0AA8802F072
:1034B0007F03042B52DC6B88002B4FD19100154AFF
:1034C0000A44117841F0020146E000BF8020074025
:1034D000FF98FF1F8998FF1F0199FF1F9020074049
:1034E0000080FF1FEC98FF1F0099FF1FC8004000DD
:1034F0002498FF1FDC98FF1F889CFF1F3498FF1F34
:10350000F698FF1F387A000030C80110880040008C
:10351000F798FF1FC02007402098FF1F7898FF1FD3
:10352000CC98FF1F6A88A9889D4B53F8084CA3F1DB
:103530000C009CB133F80C6C964209D133F80A6C3C
:103540008E4205D1120A032A0CBF237803890DE0AD
:103550000C33EAE7A978934A117004E0924B0F22EA
:103560001A7027E000231C4600E00223EE88B342D5
:1035700038BF1E46402E34BF3546402520462946DA
:10358000FFF780FD761B2C4403D1402D12D1354628
:1035900003E0402E34BF3546402520462946FFF73C
:1035A00071FD761B2C4401D1402D03D17F4AC8F810
:1035B0000040168001227E4B3DE07E4B1A8842F28D
:1035C00021039A4210D100237B4AC85C98540133EE
:1035D000072BF9D11368862B02D1784B0F221A7072
:1035E00000200146FFF74EFD754B44F8383023E0CC
:1035F000744E3568B5B1DFF8B481B8F80090B9F110
:10360000400F34BF4C46402428462146FFF73AFD80
:10361000C4EB09039BB2A8F800300BB9402C00D1D1
:103620002B193360634B1A88B2F5A06F04D10022C6
:103630005A709A78644B1A7001225D4B6CE004EB6F
:10364000C806013D736802F00802A3F10800EDB25C
:1036500002F0FF01002A36D000F032F95B485C4BE3
:1036600050F82520EAB1516840F8251002F1080110
:103670007160595D03290BD8DFE801F002040608E8
:10368000032104E0022102E0052100E00421595554
:1036900016F0080F12880CBF8823C82343EA0243A0
:1036A00042E05A5D032A07D8DFE802F040400204F6
:1036B000002206E0012204E016F0080F0CBF0222EF
:1036C00003225A5532E054F83820120C23F8082C03
:1036D00022B3DFF82CE123F8061C43F8041C5EF843
:1036E00025303C4913B94EF8250002E051F8253049
:1036F0005860394B41F8250033F815100A4423F877
:10370000152000F0BFF810B10830706006E0334BB0
:1037100044F838001A7801321A7007E0284B304A12
:1037200016F0080F08BF134644F8383008233B70E2
:1037300074E5E0071FD51E4929482A4C02230B7067
:10374000294B1A70294B186098602948D8601A6173
:103750009A615C60144B0D2018702648FF2303709B
:103760002B700274244A1370244B9F221A70012379
:103770000B70BDE8F88F210604D50B4B0D221A7093
:1037800080232B70A20705D51A4B1A78D2B21A7073
:1037900002232B70E30644BF10232B70BDE8F88F83
:1037A000487A00001099FF1FC0200740F498FF1FBF
:1037B00094200740EC98FF1F909CFF1F8998FF1FE3
:1037C000C80040002098FF1F98200740CC98FF1F9A
:1037D0003498FF1F2498FF1F889CFF1FF698FF1F37
:1037E000880040003898FF1F8898FF1F0080FF1F47
:1037F0008C98FF1F882007408C20074084200740BA
:103800007898FF1F08B5FFF705FC00221A4B00212E
:10381000D15098180832882A4160F7D1174A1068A9
:1038200040F48020106002F528326832C3F307208C
:103830001070C3F307401B0E10751376FF2302F8B8
:103840001C3C02F8143C02F88C3C012302F8083CB2
:1038500082F8641002F8183C094B70226FF4507122
:103860001A700B444FF400721A6003F1C04303F561
:10387000C82310221A7008BD0080FF1F3480044046
:1038800049E400E072B60C4A1168B1FA81F30B2BDF
:1038900002D962B6002070474FF00040D84021EABC
:1038A0000001116062B6054948225343C81800223E
:1038B000CA504260704700BF0C88FF1F0084FF1F82
:1038C0000C4B4822C31AB3FBF2F30B2B11D80A4A54
:1038D000127822B1094A12780AB1FFF721BC72B6F8
:1038E000074A4FF0004121FA03F3116819431160B0
:1038F00062B670470084FF1FF698FF1FFF98FF1FF6
:103900000C88FF1F10B5104C23686BB120684288EB
:10391000531C0244147A0288934212D3FFF7D0FF5B
:10392000094B00221A600DE0084B1B7813B94FF0C9
:10393000FF3010BD0320FFF7C5FB20600028E5D154
:10394000F5E74380204610BD0C99FF1FFF98FF1F2D
:1039500010B50B4C236813B123686BB902E0094B17
:103960001B7813B94FF0FF3010BD0320FFF7AAFBFF
:1039700020600028F0D1F5E75A881344187A10BD6A
:103980000C99FF1FFF98FF1F044B9888044B1B687E
:103990001BB11A885B88D31A18447047889CFF1F94
:1039A0000C99FF1F2DE9F8432D4E012307460C46C5
:1039B0003370002C4FD02B4D2B68A9462BBB4AF2FD
:1039C000F928294B1B7803F0FF020BB9327015E080
:1039D0000420FFF793FB072808D801233370FFF773
:1039E00051FFC9F8000080B91D4B1870B8F10108EB
:1039F0001E4B01D01A782AB101221A704FF0FF3005
:103A0000BDE8F88300F024FBDBE72968174A488803
:103A100000231370C0F14002944238BF224600F1E7
:103A2000080C10448C444880A41A934204D0F85CDB
:103A30000CF803000133F8E71F444B883F2B06D9ED
:103A400040230B800420FFF7A7FB00232B60084BCB
:103A500005221A70ADE734702046BDE8F88300BF38
:103A60000299FF1F0499FF1FFF98FF1F0899FF1F6E
:103A70000199FF1F07B502AB012103F8010D18469C
:103A8000FFF790FF03B05DF804FBFFFF2DE9F04165
:103A9000114B1B78F3B1114E114B3468114D0127B6
:103AA0001F7098464CB1002763882F700420238034
:103AB0002146FFF771FB376009E0FFF7E3FE01469F
:103AC00020B104202C70FFF767FB00E02F7000236B
:103AD00088F80030BDE8F081FF98FF1F0499FF1FB0
:103AE0000299FF1F0199FF1F38B50E4B1B7803F099
:103AF000FF05ABB90C4C216831B14B880B80042019
:103B0000FFF74AFB256038BDFFF7BCFE014620B138
:103B10000420BDE83840FFF73FBB044B01221A7078
:103B200038BD00BF0299FF1F0499FF1F0199FF1FB5
:103B3000F8B5164B164D1A6842F080721A60154B94
:103B40001A6842F001021A60134B2E681C688CB18F
:103B5000237A6BB123682F681B68204698472A6830
:103B6000E188D21B120993B28A42A38088BFE38006
:103B70006469ECE72968094B891B09098AB21A8034
:103B8000074B1888814288BF1A80F8BDFCED00E021
:103B9000041000E0001000E01499FF1F1A99FF1FA5
:103BA0001899FF1F08B50368C9B21B68984708BD7C
:103BB00008B50368C9B21B68984708BD08B5036813
:103BC000C9B21B68984708BD08B50368C9B21B682D
:103BD000984708BD4B0803F1376000F5D830B0FBBB
:103BE000F1F0FEF7AFBB10B54B0803F1376000F5FD
:103BF000D8301446B0FBF1F0FEF7A4FB2046BDE838
:103C00001040FEF7E5BBFEF70DBC0846FEF736BCDC
:103C1000FEF714BDFEF73CBDFEF720BDFEF7F2BC7B
:103C2000FEF74EBDFEF7F8BC08B50846FEF742FCAD
:103C3000012008BD08B50846FEF73CFC012008BD80
:103C400010B5084614461146FEF77EFC204610BD0E
:103C500038B508460D4603F0FDFB044621462846CC
:103C6000FEF772FC204638BD7047FFFF044B002270
:103C70001A714FF47A711A73024A99601A60704788
:103C80002099FF1F987A000008B50368C9B21B6825
:103C9000984708BD08B50368C9B21B68984708BDB6
:103CA00008B50368C9B21B68984708BD08B5036822
:103CB000C9B21B68984708BD4B0803F1376000F58F
:103CC000D830B0FBF1F0FEF78DBD10B54B0803F115
:103CD000376000F5D8301446B0FBF1F0FEF782FDF6
:103CE0002046BDE81040FEF7C3BDFEF7EBBD084619
:103CF000FEF714BEFEF7F2BEFEF71ABFFEF7FEBED9
:103D0000FEF7D0BEFEF72CBFFEF7D6BE08B50846BC
:103D1000FEF720FE012008BD08B50846FEF71AFE92
:103D2000012008BD10B5084614461146FEF75CFE9A
:103D3000204610BD38B508460D4603F08BFB0446FF
:103D400021462846FEF750FE204638BD7047FFFF4B
:103D5000044B00221A714FF47A711A73024A996067
:103D60001A6070473099FF1FE87A000008B50368B1
:103D7000C9B21B68984708BD08B50368C9B21B687B
:103D8000984708BD08B50368C9B21B68984708BDC5
:103D900008B50368C9B21B68984708BD4B0803F112
:103DA000B76000F55840B0FBF1F0FEF76BBF10B5FF
:103DB0004B0803F1B76000F558401446B0FBF1F032
:103DC000FEF760FF2046BDE81040FEF79DBFFEF7FE
:103DD000C5BF0846FEF7EEBFFFF77AB8FFF7A2B8F7
:103DE000FFF786B8FFF758B8FFF7B4B8FFF75EB82B
:103DF00008B50846FEF7FAFF012008BD08B50846D9
:103E0000FEF7F4FF012008BD10B508461446114620
:103E1000FFF736F8204610BD38B508460D4603F0CA
:103E200019FB044621462846FFF72AF8204638BDEC
:103E30007047FFFF044B00221A714FF47A711A7316
:103E4000024A99601A6070474099FF1F387B000052
:103E500008B5034B01221A60024B1B68984708BD46
:103E60000C7103405899FF1F08B5034B01221A60DB
:103E7000024B5B68984708BD1C7103405899FF1FAF
:103E800008B5034B01221A60024B9B68984708BD96
:103E90002C7103405899FF1F08B5034B01221A608B
:103EA000024BDB68984708BD3C7103405899FF1FDF
:103EB000064B01221A6003F588333C331A6822F45A
:103EC00000021A60024B00221A7070470070034013
:103ED0005499FF1F8268002310B51360027B0121F3
:103EE000541102F01F0201FA02F2084941F824209D
:103EF000074A41785354D15C31B90133042BFAD1CC
:103F0000BDE81040FFF7D4BF10BD00BF80E100E066
:103F10005099FF1F037810B504460BB1FFF7DAFF85
:103F20000023237010BD70B506460D4600243319DA
:103F3000284619790A220023013400F01DF8042CC8
:103F400005D02B6828461B682E219847EFE72046AE
:103F500070BDFFFF024B034A1A6000225A6070478F
:103F60006899FF1F887B000002F0CEBE02F0CCBE35
:103F700002F0D2BE02F0D0BE70B505468AB022B9BA
:103F80000368C9B21B6898472CE0012A08BF0A22BF
:103F900021B930228DF82520212413E02124B1FB02
:103FA000F2F002FB1011C9B209290AAE94BF3031F8
:103FB00037312644C9B206F8241C014610B1013C31
:103FC000E4B2ECE733B1013CE4B20AAB23442D2266
:103FD00003F8242C2B6801A95B6828462144C4F10E
:103FE000220298470AB070BD10B50446FFF792FF51
:103FF000204610BD04480549054A0023037080236C
:10400000437302F049BE00BF7099FF1FE93F0000F3
:104010006087FF1FFFF7B8BCFFF774BCFFF798BCC1
:10402000FFF734BD0846FFF725BD08461146FFF7E8
:10403000B9BC7047044B00221A714FF47A711A739D
:10404000024A99601A6070478499FF1F987B0000AC
:1040500010B50E4C2378BBB901232370FFF794FCF5
:1040600008B1FFF7E6FFFEF7E9FA08B1FFF7FCFD3C
:10407000FEF734FD08B1FFF769FEFEF729FF08B12E
:10408000FFF7D6FE0023237010BD00BF9499FF1FD9
:1040900010B504460021007EFDF7D4FF23682046BA
:1040A0009B689847012010BD10B50446007EFDF7BF
:1040B0004DFCA06010BDFFFF38B504460D4611460B
:1040C00000F05CFD024B25762360204638BD00BF22
:1040D000B87B000073B580E80A00069B8360079BED
:1040E000C360002300250446036143618361C3610B
:1040F0000362436280F82830072380F8293016468F
:1041000004F13C012B46009501952C30FCF7AAF9EF
:1041100004F1480004F1580132462B460095019500
:10412000FCF7A0F904F164000095019504F1740115
:1041300032462B46FCF796F9204602B070BD7FB59B
:104140000446C06803689B689847A06803689B683A
:104150009847606803689B68984794F82830012B5B
:1041600000F08980032B2CD994F8293003F0040344
:1041700003F0FF0133B3206A02F02EFB0546E0682E
:1041800000F00AFD0146284602F070FA02F03EFDFA
:10419000606202F021FB04AB04F1740243F8040DE9
:1041A0008DE80C0004F164030FCBFCF765F9E06FB8
:1041B00002F02CFDA0612061606C02F027FD014639
:1041C00000E0002194F82830022B26D9A56825B3F9
:1041D00094F829309A0720D5A06902F0FDFA064626
:1041E000284600F0D9FC0146304602F03FFA02F0C2
:1041F0000DFDE06102F0F0FA04AB04F1580243F85F
:10420000040D8DE80C0004F148030FCBFCF734F9E2
:10421000206E02F0FBFC0146206194F82830012B4F
:1042200025D965681DB394F82930DB071FD52069AF
:1042300002F0D2FA0646284600F0AEFC01463046AF
:1042400002F014FA02F0E2FC606102F0C5FA04AB7D
:1042500004F13C0243F8040D8DE80C0004F12C033A
:104260000FCBFCF709F9606C02F0D0FC0146206826
:1042700009B200F0CDFB04B070BD37B504460D4661
:10428000009201932C3004F13C01E26A2B46FCF7CA
:10429000E9F803B030BD37B504460D4600920193EE
:1042A000483004F15801A26C2B46FCF7DBF803B050
:1042B00030BD37B504460D4600920193643004F1D9
:1042C0007401626E2B46FCF7CDF803B030BD80F868
:1042D00029107047042A10B50C4602D900F016F8D0
:1042E00012E080F82820013A032A0DD8DFE802F016
:1042F0000207090B006821B200F08AFB04E00461A8
:1043000002E0846100E00462012010BD90F82820E2
:10431000FFF7E0BF00687047406808B518B100F0CB
:104320003BFC02F073FC08BD806808B518B100F0D2
:1043300033FC02F06BFC08BDC06808B518B100F092
:104340002BFC02F063FC08BD90F82830032B05D04D
:10435000042B05D0022B05D1006970478069704796
:10436000006A70470020704701207047FFFFFFFF81
:104370002DE9F0478046806903685B68984781466D
:10438000FDF760FF8246D8F8240001F0DDFE044608
:104390000D4622462B460020214901F075FD0646B8
:1043A000D8F808000F4601F0BDFE02460B46304625
:1043B000394601F01DFF0646D8F82000C0EB090081
:1043C0000F4601F0AFFE14A3D3E9002301F010FF64
:1043D00002460B462046294601F00AFF0446D8F85B
:1043E0001C00C0EB0A000D4601F08CFE02460B4695
:1043F0002046294602F026F802460B46304639464A
:1044000001F044FD02F006F9C8F81CA0C8F8080045
:10441000C8F82090BDE8F0870000000080842E419D
:104420000000F03FAFF3008070B504460D46114622
:104430001E4600F0A3FB084BA56100252360256202
:104440006662FDF7FFFE6561E061A06900F0AAFB0E
:104450002061204670BD00BFD07B000072B60023F3
:10446000436262B6704708B503685B68984702F01C
:10447000B3F908BD10B50368017A1C7843681A784F
:10448000437A1A40837A0C4203F0030318BF43F0C7
:1044900004030AB143F008039A10013B82720D2B0A
:1044A00014D8DFE803F0070A0D0A131007071013EA
:1044B0000A0D0A07C368013307E0C368013B04E043
:1044C000C368023301E0C368023BC36010BDFFFF55
:1044D00008B5034BD3F88400FFF7CCFF08BD00BF3D
:1044E0009899FF1F08B5034BD3F88000FFF7C2FF70
:1044F00008BD00BF9899FF1F08B5024BD86FFFF7A2
:10450000B9FF08BD9899FF1F08B5024B986FFFF7D8
:10451000B1FF08BD9899FF1F08B5024B586FFFF710
:10452000A9FF08BD9899FF1F08B5024B186FFFF748
:10453000A1FF08BD9899FF1F08B5024BD86EFFF781
:1045400099FF08BD9899FF1F08B5024B986EFFF7B9
:1045500091FF08BD9899FF1F08B5024B586EFFF7F1
:1045600089FF08BD9899FF1F08B5024B186EFFF729
:1045700081FF08BD9899FF1F08B5024BD86DFFF762
:1045800079FF08BD9899FF1F08B5024B986DFFF79A
:1045900071FF08BD9899FF1F08B5024B586DFFF7D2
:1045A00069FF08BD9899FF1F08B5024B186DFFF70A
:1045B00061FF08BD9899FF1F08B5024BD86CFFF743
:1045C00059FF08BD9899FF1F08B5024B986CFFF77B
:1045D00051FF08BD9899FF1F08B5024B586CFFF7B3
:1045E00049FF08BD9899FF1F08B5024B186CFFF7EB
:1045F00041FF08BD9899FF1F08B5024BD86BFFF724
:1046000039FF08BD9899FF1F08B5024B986BFFF75B
:1046100031FF08BD9899FF1F08B5024B586BFFF793
:1046200029FF08BD9899FF1F08B5024B186BFFF7CB
:1046300021FF08BD9899FF1F08B5024BD86AFFF704
:1046400019FF08BD9899FF1F08B5024B986AFFF73C
:1046500011FF08BD9899FF1F08B5024B586AFFF774
:1046600009FF08BD9899FF1F08B5024B186AFFF7AC
:1046700001FF08BD9899FF1F08B5024BD869FFF7E5
:10468000F9FE08BD9899FF1F08B5024B9869FFF71E
:10469000F1FE08BD9899FF1F08B5024B5869FFF756
:1046A000E9FE08BD9899FF1F08B5024B1869FFF78E
:1046B000E1FE08BD9899FF1F08B5024BD868FFF7C7
:1046C000D9FE08BD9899FF1F08B5024B9868FFF7FF
:1046D000D1FE08BD9899FF1F08B5024B5868FFF737
:1046E000C9FE08BD9899FF1F08B5024B1868FFF76F
:1046F000C1FE08BD9899FF1F38B590F82830012BEE
:10470000044604D872B61830FFF7B4FE00E072B663
:10471000656A62B6A560284602F05EF8E060284649
:1047200038BDFFFF08B5212800F2D580DFE810F082
:10473000220027002C00310036003C0041004600DA
:104740004B00500055005A005F00640069006E0085
:10475000730078007D00820087008C009100960035
:104760009B00A000A500AA00AF00B400B900BE00E5
:10477000C300CD00594B002019605949A0E0574BA8
:104780000120596057499BE0544B022099605649DB
:1047900096E0524B0320D960544991E04F4B0420DE
:1047A0001961024652498CE04C4B05205961514930
:1047B00086E04A4B062099614F4981E0474B07202C
:1047C000D9614E497CE0454B082019624C4977E09D
:1047D000424B092059624B4972E0404B0A209962D2
:1047E00049496DE03D4B0B20D962484968E03B4B9D
:1047F0000C201963464963E0384B0D205963454945
:104800005EE0364B0E209963434959E0334B0F204D
:10481000D963424954E0314B1020196440494FE0BC
:104820002E4B112059643F494AE02C4B12209964C9
:104830003D4945E0294B1320D9643C4940E0274BD2
:10484000142019653A493BE0244B15205965394934
:1048500036E0224B16209965374931E01F4B17206F
:10486000D96536492CE01D4B18201966344927E0DC
:104870001A4B19205966334922E0184B1A209966C1
:1048800031491DE0154B1B20D966304918E0134B08
:104890001C2019672E4913E0104B1D2059672D4924
:1048A0000EE00E4B1E2099672B4909E00B4B1F2091
:1048B000D9672A4904E0094BC3F880102849202011
:1048C0000422FDF7AFFA012008BD044B2120C3F8F4
:1048D00084102449F4E7002008BD00BF9899FF1F09
:1048E000E9460000D9460000C9460000B94600006C
:1048F000A94600009946000089460000794600005C
:10490000694600005946000049460000394600004B
:10491000294600001946000009460000F94500003C
:10492000E9450000D9450000C9450000B94500002F
:10493000A94500009945000089450000794500001F
:10494000694500005945000049450000394500000F
:10495000294500001945000009450000F944000000
:10496000E5440000D1440000F8B504460E4619465F
:10497000154600F003F9204B236030460221FDF775
:1049800061FB28460221FDF75DFB1C4A52F83630D8
:1049900003F50071A161012184F8201052F835203F
:1049A00084F8211002F5007000216162E0614FF48B
:1049B0007A4101397FF4FDAF93F8003292F800227A
:1049C00003F00103D20744BF43F00203DBB204F15A
:1049D000180784F8223039463046FFF7A3FE3946DF
:1049E00084F828002846FFF79DFE94F828301844E4
:1049F00084F828002046F8BDE87B000028790000F4
:104A00000271024A02608160704700BF007C0000B2
:104A100038B5054680680C4600F0BEF802F01CF977
:104A2000E343DB0F6B710BB9644224B284423DBF98
:104A3000C4EB0424B4FBF0F4E4B2FF242B68AC71A3
:104A40005B682846984738BD38B50446806800F052
:104A5000A3F80546A07901F0BFFE0146284601F003
:104A60000FFF064901F0C0FF02F0D0F8637980B271
:104A70000BB9404280B200B238BD00BF00007F4396
:104A800010B504460121007BFDF7DCFA607B0121B3
:104A9000FDF7D8FAE27BA37B1340FF2B07D1207BE5
:104AA0001049FDF739FA607B0E49FDF735FAA07B16
:104AB000FF2804D00121FDF7C5FAA07B06E0E07BCA
:104AC000FF2806D00121FDF7BDFAE07B0549FDF77F
:104AD00023FA0820FDF714FAA06803681B689847BA
:104AE00010BD00BF00409C4610B5C27B837B41795E
:104AF0001340FF2B0446007B0BD129B1A179FDF7B0
:104B0000BDFA607B002111E0FDF7B8FA607BA17966
:104B10000CE0FDF769FA6179607B81F00101FDF736
:104B200063FAA07BA179FF2808BFE07BBDE81040B5
:104B3000FDF7A4BA70B504460E46154619469DF811
:104B40001020FFF75DFF044B2360FF23267365737E
:104B5000A373E373204670BD107C0000806870472B
:104B6000036810B55B68044698476369C01A01F092
:104B700033FE216901F084FEE06010BD0171054A39
:104B8000026000210022C1604FF07E51826001610D
:104B900042617047207C0000C068704781607047A8
:104BA000C160704700697047FCF790BF014B1888DF
:104BB000FFF7FABF1088FF1F08B5FCF751FF074B3E
:104BC00003F11402988833F8021F0144934259807C
:104BD000F8D1034B01221A7008BD00BF0E88FF1FD9
:104BE000209AFF1F10B5002404704160826010BD40
:104BF00043681BB183680BB1012303707047F8B59C
:104C0000057804469DB10026606803689B68984754
:104C100060B166B9A668606833681F680368DB68BE
:104C20009847C1B23046B8470646EDE735462846B4
:104C3000F8BD30B50446007891B070B1A068036843
:104C40006A465B68984705466068036869465B6822
:104C50002A469847431B5842584111B030BD08B509
:104C6000806803681B69984708BDFFFF10B5094BB2
:104C70000360094B43600446002383604373017360
:104C800008460121FDF7DEF9207B617BFDF7ACF9D9
:104C9000204610BD387C00008499FF1F417B81F0C5
:104CA00001014173007BFDF79FB908B5FFF7F6FFDF
:104CB000012008BD40687047806870470B885840E5
:104CC00080EA0010C0B2C20082EA002282EA132306
:104CD00083EA10100880704708B503685B6998473D
:104CE00008BD704710B504460830FFF781FF04F196
:104CF0001400BDE81040FFF77BBFF8B5054600F192
:104D0000080400F120062046FFF779FF40B12B6828
:104D100020465F6AFFF7A3FF01462846B847F2E73F
:104D20000C34B442EFD1F8BD38B504460D46083016
:104D3000FFF77FFF04F114002946BDE83840FFF774
:104D400078BF09B902F026BB02F08ABA30B5CB7938
:104D5000032B8FB00AD0042B31D10B89ADF804306E
:104D60000368BDF804109B6A984726E001F1080328
:104D700001AA01F1380518685968144603C40833BC
:104D8000AB422246F7D118682060002401AA02EB4A
:104D90008403E1B20B485A6A013400F031FD042C5F
:104DA000F4D1002401AA02EB8403E1B205485A6859
:104DB000013400F01FFD082CF4D1012000E0002098
:104DC0000FB030BDCC9AFF1F2DE9F743044698463B
:104DD000FE2383701746E27000231B4A83714171E2
:104DE000917901714FF6FF7301319171C61CADF8D5
:104DF000063000F10805AE4206D016F8010B0DF1A1
:104E00000601FFF75BFFF6E794F80390BDF8063064
:104E10002380A9442E464E4505D016F8010B2146A5
:104E2000FFF74CFFF7E740462146FFF747FFE378DF
:104E30002288EA54E3781D44238807F108001B12F6
:104E40006B7003B0BDE8F083229AFF1FF0B5144BDE
:104E500042791B680779ABB0054602938DF80C20A8
:104E600002230DF10D00694602AE08228DF81530BF
:104E7000FFF767FF96E80F0008AC07C42380002304
:104E80008DF81F3039460E2206A81F23FFF79CFF1E
:104E90002B6828461B6A06A998472BB0F0BD00BFB7
:104EA000A896FF1F10B5A6B00B460446ADF8043017
:104EB000ADF81030042301798DF80F30022202A8DA
:104EC0008523FFF781FF236820461B6A02A99847C4
:104ED00026B010BDF0B5224BBFB01B68009306464C
:104EE0000024E1B21F4800F07EFC00AA02EB84031C
:104EF0000134042C5862F4D10024E1B2194800F0C6
:104F00006BFC00AA02EB84030134082C5860F4D136
:104F10003EAD009B45F8C43D0EA801A9202237797B
:104F2000FFF70FFF16A809A91022FFF70AFF0FCD00
:104F30001CAC0FC40FCD0FC40FCD0FC42B68236062
:104F400003238DF86F30394634221AA8AC23FFF7BB
:104F50003BFF336830461B6A1AA998473FB0F0BD43
:104F6000A896FF1FCC9AFF1FF0B5174A0779126861
:104F7000ABB06D460092329A0192339A0292349A03
:104F80000392309AADF81020319AADF812208DF8C6
:104F900014108DF8153006460FCD08AC0FC495E8F7
:104FA000030044F8040B012321808DF81F3039469B
:104FB000162206A8D723FFF707FF336830461B6A7F
:104FC00006A998472BB0F0BDA896FF1FF0B5ADB06D
:104FD00006460779202268466D46FFF7B2FE0FCDE0
:104FE0000AAC0FC495E80F0084E80F0005238DF884
:104FF00027303946202208A86B23FFF7E5FE3368E7
:1050000030461B6A08A998472DB0F0BDF8B5154683
:10501000134A43710446026001712846FFF74AFEB5
:105020000746A020FEF7A0FF064600F015F9394616
:10503000324604F10800FFF7D5FD2846FFF73CFE95
:105040000646A020FEF790FF054600F005F904F1A2
:10505000140031462A46FFF7C5FD2046F8BD00BFC3
:10506000487C00000B88584080EA0010C0B2C200A3
:1050700082EA002282EA132383EA10100880704734
:10508000B0F89C007047B0F89E007047043070473D
:1050900010B51346CA780C4618460231063202F0A3
:1050A000DFF8E27803460632811820889854238876
:1050B0001B124B70E078083010BDFFFFF8B5634C51
:1050C00000232370E37807460D46092B00F2A180E8
:1050D000DFE803F00505132E27353C48597EFE29ED
:1050E00040F097800223E370594B0022DA704FF0B2
:1050F000FF3299701A705A708BE0802907D9637853
:1051000001336370A3780133A370012307E0504992
:1051100000232371CD702846FFF7A4FF0423E3701A
:1051200077E04B4928460D71FFF79CFF0323F6E714
:10513000474928464D71FFF795FF0523EFE744499E
:1051400028468D71FFF78EFF0623E8E7404E08469C
:10515000F1713146FFF786FFF3780BB90823DEE7DC
:105160000723DCE723793A4E5A1C33442271197223
:1051700008463146FFF776FF2279F3789A4248D104
:105180000822324B30E0324E324AF3793146D05C5D
:10519000FFF768FF3388DBB29D4213D0A3782B4A18
:1051A0000133A370FE2D4FF00003237002D00123C2
:1051B000D3702EE00221F3704FF0FF33D1703370C3
:1051C000737026E00923E37023791E44357220E0D2
:1051D0001F490B88B5EB132F11D0A2781B4B01325E
:1051E000FE2DA27002D00122DA7012E00222DA70E3
:1051F0000023CB704FF0FF330B704B7009E001239D
:105200002370E37023790B4404305D72902202F026
:1052100027F820780D4A012807D10D4B1B795371CF
:10522000138903B95381013323816379013387F8EB
:1052300099302389A7F89C30A378A7F89E300023E3
:10524000C01AA37018BF0120F8BD00BF2E9AFF1F1F
:105250003A9AFF1F987C0000014B0360704700BF23
:10526000807C000010B5064CD4F8F80003685B6839
:105270009847D4F8F80003689B689847002010BD51
:10528000CC9AFF1F90F8E9301A0607D4C2180133F0
:1052900082F8681080F8E9300120704700207047DC
:1052A00038B5044690F8E900C0F18005954228BF62
:1052B0001546683020442A4601F0D2FF94F8E930C0
:1052C0002B4484F8E930284638BDFFFF0023124AFA
:1052D000037102604371837180F8E83080F8E9302F
:1052E00080F8EA3080F8EB3080F8EC3080F8FC3061
:1052F00080F8FD30024608230021013B9160916354
:1053000002F10402F8D183628365C362C36503635B
:105310000366436343667047A07D0000C0F8F41045
:105320007047C0F8F8107047F8B5044611B101296C
:1053300002D0F8BD0D462CE090F8EC20D0F8F0300B
:1053400053F8220000F0E3FA40B3002694F8EA3064
:10535000F5B2AB4214D994F8EC20D4F8F03053F8FD
:10536000220000F009FBD4F8F030074653F825007E
:1053700000F002FB874288BF84F8EC500136E5E775
:10538000F8BDD4F8F02052F8230000F0C0FA01353F
:1053900020B994F8EA20EBB29A42F2D8F8BDF8B5F9
:1053A00006460F46002596F8EA30ECB2A3420BD928
:1053B000D6F8F03053F8240000F0D6FAB84205F1E0
:1053C0000105F0D12046F8BD4FF0FF30F8BD2DE9C2
:1053D000F843044608460D4600F0C6FA50B1284688
:1053E00000F0C2FA01462046FFF7D9FF002801DA93
:1053F000002600E001268EB1284600F0B5FA411CD7
:10540000C9B2284600F0AEFA284600F0ADFA0146CF
:105410002046FFF7C4FFC643F60FECE794F8EA0016
:1054200001308000FEF7A2FD94F8EA300746A3B1F0
:10543000B04694F8EA305FFA88F6B3420DD92846B0
:1054400000F098FAD4F8F030814653F8260000F0C6
:1054500091FA814508F1010822D933B2013647F8A3
:10546000235094F8EA300133F6B284F8EA3094F825
:10547000EA30D4F8F000B34208D900EB860050F8C7
:10548000043C47F826300136F6B2F0E708B1FEF7E3
:1054900071FDC4F8F0702846BDE8F84300F064BA26
:1054A000D4F8F03053F8263047F82630C1E7FFFF34
:1054B0002DE9F341054630201E4688461746FEF783
:1054C00053FD0E4B0093044633463A46414600F0E6
:1054D000F5F920469DF8241000F044FA28462146AC
:1054E000FFF775FF9DF82030054613B1204600F008
:1054F0000CFA284602B0BDE8F08100BF91780000A8
:105500002DE9F341D0F8F46004460D464EB9102061
:10551000FEF72AFD0D2180463246FFF7A7FBC4F8AF
:10552000F480D4F8F40003681B689847D4F8F83086
:105530005BB92020FEF718FD2D210646D4F8F42093
:105540001423FFF763FDC4F8F860D4F8F80003688B
:105550001B68984794F8FC3003F0040303F0FF0243
:1055600043B9642300920193204601212A4A2B4B20
:10557000FFF79EFF94F8FC3003F0080303F0FF02EE
:105580004BB96523009201932046022142F210722A
:10559000234BFFF78DFF1DB1012D3AD100261DE0F1
:1055A00094F8EA306E1CEDB2AB4232D9D4F8F03048
:1055B00053F8250000F099F93546F1E7D4F8F030BA
:1055C00053F8250000F0D4F9B84206D2D4F8F030F0
:1055D00053F8250000F0CCF90746013694F8EA307C
:1055E000F5B29D42EAD3B7FBF3F7FCF72BFE00239D
:1055F000054694F8EA205E1CDBB29A4209D9D4F839
:10560000F020294652F8230000F07AF93D44334651
:10561000EFE702B0BDE8F081A08601005958000014
:10562000655200002DE9F04FD0F8F85090F8EB20CB
:105630002B681E69D0F8F030044689B053F8220078
:1056400000F092F994F8EB20D4F8F030824653F849
:10565000220000F08BF994F8EB20D4F8F03081466A
:1056600053F8220000F086F994F8EB30D4F8F0708B
:10567000804657F8230000F083F994F8EB30D4F813
:10568000F070834657F8230000F07CF994F8EB2083
:10569000D4F8F070034657F82200069300F074F92E
:1056A00094F8EB10D4F8F070024657F821000792F6
:1056B00000F06CF9D4F8F010074694F8EB0051F8BC
:1056C000200000F065F9069B079A0193029204906E
:1056D0004A464346CDF800B0039728465146B047A6
:1056E00094F8EB3094F8EA200133DBB29A4284F864
:1056F000EB309CBF002384F8EB3009B0BDE8F08F9D
:105700002DE9F04F04468BB0002594F8EA3005F1FE
:105710000108EDB2AB424DD9D4F8F86033681F6987
:10572000D4F8F03053F8250000F01EF9D4F8F0302A
:10573000014653F82500069100F018F9D4F8F0302E
:10574000824653F8250000F015F9D4F8F030814670
:1057500053F8250000F014F9D4F8F030099053F80C
:10576000250000F00FF9D4F8F030024653F8250078
:10577000079200F009F90346D4F8F00050F825002C
:10578000089300F003F98346D4F8F00050F82500A0
:1057900000F0FEF8099D079A089B0095019202937C
:1057A0000490CDF80CB03046069952464B46B847A7
:1057B0004546AAE70BB0BDE8F08F8379012B10B501
:1057C000044604D0022B04D1FFF72CFF01E0FFF7C1
:1057D00097FF0023A37110BD07299ABF023150F82B
:1057E00021000020704703299ABF0A3150F8210098
:1057F0000020704707299CBF023140F821207047E4
:1058000003299CBF0A3140F82120704710B590F859
:10581000E9300446FBB1D0F8F80094F8E8100368CA
:105820006831DB692144984794F8E8006830202209
:105830002044002101F0AEFD94F8E83094F8E9200E
:105840002033DBB29A4284F8E83004D8002384F88D
:10585000E83084F8E93010BD134A38B51368012BDD
:1058600015460DD0022B0FD093B9104CD4F8F4008C
:10587000FFF714FAD4F8F8000368DB6898470AE0E9
:105880000A48FFF79AFF06E00848FFF7CBFE02E060
:105890000648FFF7BBFF2A68034B01320A2AC8BF3C
:1058A00000221A60002038BDCC9BFF1FCC9AFF1F3E
:1058B0000148FFF70BBD00BFCC9AFF1F70B5049ED7
:1058C0000173002505704570026145618561C56100
:1058D000056245628562C3623368C0F8023073684E
:1058E000C0F806303389438170BD012310B50370C1
:1058F0000446FCF7A7FCE36A60619847207810BD76
:1059000001230370416118467047FFF7EEBFF8B5F9
:10591000057804460DB9002522E0FCF793FC666982
:10592000236907461EB9C21A1E46626100E0861B43
:105930009E42F0D3E36A9847A36A62690133A36287
:10594000236913446361FCF77DFC2369C01BF61ACD
:10595000276A636AE66107441E44A06127626662A3
:105960002846F8BD41707047407870470230704754
:1059700000697047007B70470269406910447047B6
:1059800080697047C0697047006A7047406A704715
:10599000806A7047164B1A6842F480521A60154BA1
:1059A000154A1A60154ADA6002F180421A61144AF7
:1059B0001A60144B1B78DA0755BF134A134A4FF489
:1059C00010714FF4007113F0020F11600CBF1049F9
:1059D00010495B074FF4007254BF0F4B0F4B0A6026
:1059E00054BF4FF410724FF400721A60704700BF3A
:1059F0003C80044000C0024001401F0001100038FC
:105A000000001F801C99FF1F18B0044008C004400C
:105A10001CB004400CC0044014B0044004C0044056
:105A2000034BDA789207FBD50222DA70704700BF89
:105A300000600640094B1B7813B9094B1B782BB14A
:105A4000084A1378202B03D90123037100207047E3
:105A5000581C1070044A0120D15470474E9CFF1FFF
:105A6000119CFF1F4F9CFF1FF09BFF1F7047FFFF04
:105A7000024B1878024B1B78C01A70474D9CFF1FD1
:105A80004C9CFF1F064A074913780978994204D9AC
:105A9000591C1170044AD05C70474FF0FF307047BA
:105AA0004C9CFF1F4D9CFF1F129CFF1F054B064A7D
:105AB0001B7812789A4286BF044AD05C4FF0FF30C0
:105AC000704700BF4C9CFF1F4D9CFF1F129CFF1F87
:105AD00070B50E4B1B78144613B90D4B1B7893B160
